:400000000080002011000000910000009100000008B5044B1A6803F53F5302331A6000F03FF800BFFA46004010B5054C237833B9044B13B10448AFF300800123237010BD1E
:400040004085FF1F000000000C070000084B10B51BB108480849AFF300800848036803B910BD074B002BFBD0BDE81040184700BF000000000C0700004485FF1F0881FF1FA3
:400080000000000008B562B600F0AAF9FEE700BF08B500F0D1F903680C2B00D1FEE7FEE708B5104E104D16E029686B68AC68002204E051F8040B43F8040B0432A242F8D10F
:4000C000E868002203E0002143F8041B04328242F9D11035013E002EE6D100F0B3F9FFF7D1FFFEE7010000008407000008B5124A124B1A60124A136843F400731360002329
:400100000AE0032B03D80F4A52F8231000E00E490E4A42F8231001332F2BF2D90C4B1A780C4B1A70094A0C4B1A6000F0ADF800220A4B1A6008BD00BF0004FA050CED00E0CD
:4001400014ED00E000000000910000000080FF1FBC7600400481FF1F08ED00E00081FF1FFEE700BFF0B40022174611E050F82760F3B226F0FF0608E001EB420511F8124029
:400180006D78A5550132013BDBB2002BF4D10137082FEBD9F0BC7047064B1B78DBB203F00701054A11701B09013213704422034B1A707047CF0100496E58004076580040A6
:4001C00008B50A46002100F0DBF908BD38B51925234B1D80182202331A70022203F27E231A7008224FF040231A70032103F5007319701C4B1B78DBB21B490B701B4B1A8001
:4002000041F25122023B1A8000240CE0184B1B7803F0010343EA440404F003044FF4F07000F0FAF8013D0DB1032CEFD115B90320FFF796FF0F4B4FF480721A8007221A700C
:4002400000220D490A704820023108701A700222033B1A70094A137843F00103137038BD8040004008010049A146004022420040254200400440004006400040A243004083
:4002800008B500F007F908BD38B572B6304A137843F00403137000240CE02E4963001A1952000A4423445B00C8589188FFF788FF0134E4B2082CF0D900240BE02549A300D8
:4002C0001A1952000A44906BD16B8022FFF7D8FF0134E4B2002CF1D04FF090401E49FFF741FF1E4A137843F0020313701032137843F0020313701A4C237843F040032370E1
:40030000A2F58632513A137843F010031370154815490A22FFF7B4FF144815490822FFF7AFFF144A137843F008031370124D61232B70FFF74BFF81232B7001220F4B1A70C9
:40034000FFF72AFF0E4821460E22FFF799FF38BDE8460040100700002400004803500140A0430040C0510040D402004812510040E002004822430040004800400400084091
:40038000B04300407222074B1A70202201331A7006225F3B1A70472210331A70002251331A7070478865004010B500F03DF804460A4A137843F0200313700132137843F027
:4003C000100313700232137843F01003137000F015F8204600F02CF810BD00BF9865004008B5054B1B7823B9FFF7CCFF0122024B1A70FFF7D9FF08BD5C85FF1F054A1378FC
:4004000043F0010313701032137843F001031370704700BFA24300400230800803D000BF01380046FCD17047EFF3108072B6704780F31088704700BF014B1868704700BF7D
:400440003885FF1F70B50F4E0F4D761BB61018BF002405D0013455F8043B9847A642F9D10A4E0B4D00F07AF9761BB61018BF002406D0013455F8043B9847A642F9D170BD90
:4004800070BD00BF68070000680700007407000068070000844641EA000313F0030349D1403A23D30B6803604B6843608B688360CB68C3600B6903614B6943618B6983619D
:4004C000CB69C3610B6A03624B6A43628B6A8362CB6AC3620B6B03634B6B43638B6B8363CB6BC36340304031403ADBD230320BD30B6803604B6843608B688360CB68C3602C
:4005000010301031103AF3D20C3205D351F8043B40F8043B043AF9D2043208D0D2071CBF11F8013B00F8013B01D30B8803806046704700BF082A13D38B07B1D010F003039B
:40054000AED0C3F10403D21ADB071CBF11F8013B00F8013BA4D331F8023B20F8023B9FE7043AD9D3013A11F8013B00F8013BF9D20B7803704B7843708B7883706046704740
:4005800070B4840746D0541E002A41D0CDB2034602E0621EE4B3144603F8015B9A07F8D1032C2ED9CDB245EA05250F2C45EA054519D9264603F11002103E0F2E42F8105C96
:4005C00042F80C5C42F8085C42F8045C02F11002F2D8A4F1100222F00F0204F00F041032032C13440DD91E462246043A032A46F8045BFAD8221F22F003020432134404F054
:4006000003042CB1C9B21C4403F8011BA342FBD170BC704714460346C2E700BF024B13B1024800F005B87047000000003D060000014600200246034600F016B838B5084B4D
:40064000084DED1AAC1018BFED1805D0013C55F8043D9847002CF9D1BDE8384000F08AB880070000840700002DE9F047254C064625688846D5F8484192469946C4B36068FF
:400680001F2817DC411C76B104EB8003C3F888A0D4F88851012282401543022EC4F88851C3F808911ED0831C6160002044F82380BDE8F087144B03B34FF4C870AFF3008011
:4006C0000446D0B1D5F84831002784E888003846C5F848410121C4F88871C4F88C71002EE1D0D1E7D4F88C311A43C4F88C21DAE705F5A674C5F84841C1E74FF0FF30BDE8BE
:40070000F08700BF580700000000000000000000005100401000205100405000F0510040100000000140001000140140000480180140800300400140000A004C01400002D1
:400740000050014020000000001801405402004880000000430000001081FF1FF8B500BFF8BC08BC9E4670471D0600004D000000ED000000F8B500BFF8BC08BC9E46704704
:4007800029000000980700000881FF1F380400002000000000000000000000000000000000000000FC83FF1F6484FF1FCC84FF1F000000000000000000000000000000005D
:4007C000000000000000000000000000000000000000000054070000000000000000000000000000000000000000000000000000000000000000000000000000000000009E
:4008000000000000000000000000000000000000000000000000000000000000000000000000000000000000000000000000000000000000000000000000000000000000B8
:40084000000000000000000001000000000000000E33CDAB34126DE6ECDE05000B00000000000000000000000000000000000000000000000000000000000000000000004B
:400880000000000000000000000000000000000000000000000000000000000000000000000000000000000000000000000000000000000000000000000000000000000038
:4008C00000000000000000000000000000000000000000000000000000000000000000000000000000000000000000000000000000000000000000000000000000000000F8
:4009000000000000000000000000000000000000000000000000000000000000000000000000000000000000000000000000000000000000000000000000000000000000B7
:400940000000000000000000000000000000000000000000000000000000000000000000000000000000000000000000000000000000000000000000000000000000000077
:400980000000000000000000000000000000000000000000000000000000000000000000000000000000000000000000000000000000000000000000000000000000000037
:4009C00000000000000000000000000000000000000000000000000000000000000000000000000000000000000000000000000000000000000000000000000000000000F7
:400A000000000000000000000000000000000000000000000000000000000000000000000000000000000000000000000000000000000000000000000000000000000000B6
:400A40000000000000000000000000000000000000000000000000000000000000000000000000000000000000000000000000000000000000000000000000000000000076
:400A80000000000000000000000000000000000000000000000000000000000000000000000000000000000000000000000000000000000000000000000000000000000036
:400AC00000000000000000000000000000000000000000000000000000000000000000000000000000000000000000000000000000000000000000000000000000000000F6
:400B000000000000000000000000000000000000000000000000000000000000000000000000000000000000000000000000000000000000000000000000000000000000B5
:400B40000000000000000000000000000000000000000000000000000000000000000000000000000000000000000000000000000000000000000000000000000000000075
:400B80000000000000000000000000000000000000000000000000000000000000000000000000000000000000000000000000000000000000000000000000000000000035
:400BC00000000000000000001081FF1F0000000000000000000000000000000000000000000000000000000000000000000000000000000000000000000000000000000046
:400C000000000000000000000000000000000000000000000000000000000000000000000000000000000000000000000000000000000000000000000000000000000000B4
:400C40000000000000000000000000000000000000000000000000000000000000000000000000000000000000000000000000000000000000000000000000000000000074
:400C80000000000000000000000000000000000000000000000000000000000000000000000000000000000000000000000000000000000000000000000000000000000034
:400CC00000000000000000000000000000000000000000000000000000000000000000000000000000000000000000000000000000000000000000000000000000000000F4
:020000040003F7
:0200000480007A
:4000000002520040036500401418014039190140691A0140521B0140014C0140074D01400250014061806440887289388B0F800886048A029602A101A401A801AC01B002FD
:40004000B204B401B501B608BE41BF10D418D804D904DB04DF010010010A054906040A200C410D020E0A0F20102A1682172019101A011B151D211E1A23082410250A270186
:400080002B402C452D08355137043D803EA23F084444452847404E104F2055015B015E10600463026C2A6E046F087540762477248601C0FEC2F4C4D7CAF1CCF0CEF0D0F064
:4000C000D220D621D80CE00802030410060C070808100C090D800E100F131220152C16201743180C19711A111B06230C24142571270E281C2A02301F31C0330F342035303D
:4001000039223B083E103F104002450449FF4A074BFF4C404D204EF04F055008580459045A045F01604061A862406320814882358334844A85F8863488138A2C8D208E48DE
:400140008FC293019501980399909A149B2CA101A413A664A9F8AA40AF01B010B106B268B301B40FB518B7E0B908BA28BE01BF01C024C103C50CC6CEC70BC81DC9FFCAFF4A
:40018000CBFFCEF0CF44D00CD401D804D904DA04DB04DF01E6C0EA40EB0200600102020103100440051006400720081009090F081108120814101604180419021D141E4029
:4001C0002040211022082320254826102740281029042A012C412F083110320833103501361438803A043B043D803E06411044104640471048104B044F0850405240550454
:4002000057505D015E405F18633079017B4089088A0292049404984199019B089D0A9F40A101A204A308A540A610A740B212C0FFC24EC466CAB3CCE6CEDAD0E4D6F08710DB
:400240001040731088409310C408DC01E20110011C0100001F802000010000040418000008C000001C1C23E10008230033000CE33F10000003FF0000004400000CE70018B5
:40028000023C00C22C1F10380F0000C00000A2020000040026040300010C00E021FFFFFF62A0F0410C00000000000211040404040000000100000000000040020010301007
:4002C0000010101200000000000000000000000000000000800040808000800000000000000B0B000000000000000000000000000000000000000000000000000000000076
:4003000000000000000000000000000000000000000000000000000000000000000000000000000000000000000000000000000000000000000000000000000000000000BD
:40034000000000000000000000000000000000000000000000000000000000000000000000000000000000000000000000000000000000000000000000000000000000007D
:40038000000000000000000000000000000000000000000000000000000000000000000000000000000000000000000000000000000000000000000000000000000000003D
:4003C00000000000000000000000000000000000000000000000000000000000000000000000000000000000000000000000000000000000000000000000000000000000FD
:0200000490006A
:0400000000004005B7
:0200000490105A
:04000000BC90ACAF55
:0200000490303A
:0200000068296D
:0200000490402A
:4000000000000000000000000000000000000000000000000000000000000000000000000000000000000000000000000000000000000000000000000000000000000000C0
:400040000000000000000000000000000000000000000000000000000000000000000000000000000000000000000000000000000000000000000000000000000000000080
:400080000000000000000000000000000000000000000000000000000000000000000000000000000000000000000000000000000000000000000000000000000000000040
:4000C0000000000000000000000000000000000000000000000000000000000000000000000000000000000000000000000000000000000000000000000000000000000000
:0200000490501A
:0C00000000012E16106900012E197892E4
:00000001FF