:400000000080002011000000FD000000FD00000008B5044B1A6803F53F5302331A6000F08DF800BFFA46004010B5054C237833B9044B13B10448AFF300800123237010BDF8
:400040005089FF1F00000000401F0000084B10B51BB108480849AFF300800848036803B910BD074B002BFBD0BDE81040184700BF00000000401F00005489FF1F0881FF1FE3
:400080000000000008B562B600F0F8F9014800F065FBFEE7441F0000F8B50C46174600250BE023780A2B02D10D2000F00BFA661C207800F007FA01353446BD42F1DB384674
:4000C000F8BD00BFF8B50F461446002612E000F0E3F9054670B100F0F5F901360D2D03D10A2000F0EFF90A257B1C3D70013C0A2D02D01F46002CEADC3046F8BD08B500F0D3
:400100000BFA03680C2B00D1FEE7FEE708B5094B1A681044084BC31AB3F5006F02DC054B186005E000F0F8F90C2303604FF0FF32104608BD0C81FF1FA889FF1F08B5104EB1
:40014000104D16E029686B68AC68002204E051F8040B43F8040B0432A242F8D1E868002203E0002143F8041B04328242F9D11035013E002EE6D100F0D5F9FFF783FFFEE711
:4001800001000000D41F000008B5124A124B1A60124A136843F40073136000230AE0032B03D80F4A52F8231000E00E490E4A42F8231001332F2BF2D90C4B1A780C4B1A705C
:4001C000094A0C4B1A6000F0ADF800220A4B1A6008BD00BF0004FA050CED00E014ED00E000000000FD0000000080FF1FBC7600400481FF1F08ED00E00081FF1FFEE700BF4C
:40020000F0B40022174611E050F82760F3B226F0FF0608E001EB420511F812406D78A5550132013BDBB2002BF4D10137082FEBD9F0BC7047064B1B78DBB203F00701054A89
:4002400011701B09013213704422034B1A707047CF0100496E5800407658004008B50A46002100F0FDF908BD38B51925234B1D80182202331A70022203F27E231A7008228B
:400280004FF040231A70032103F5007319701C4B1B78DBB21B490B701B4B1A8041F25122023B1A8000240CE0184B1B7803F0010343EA440404F003044FF4F07000F01CF902
:4002C000013D0DB1032CEFD115B90320FFF796FF0F4B4FF480721A8007221A7000220D490A704820023108701A700222033B1A70094A137843F00103137038BD80400040B3
:4003000008010049A146004022420040254200400440004006400040A243004008B500F029F908BD38B572B6304A137843F00403137000240CE02E4963001A1952000A44A2
:4003400023445B00C8589188FFF788FF0134E4B2082CF0D900240BE02549A3001A1952000A44906BD16B8022FFF7D8FF0134E4B2002CF1D04FF090401E49FFF741FF1E4AD8
:40038000137843F0020313701032137843F0020313701A4C237843F040032370A2F58632513A137843F010031370154815490A22FFF7B4FF144815490822FFF7AFFF144AC1
:4003C000137843F008031370124D61232B70FFF74BFF81232B7001220F4B1A70FFF72AFF0E4821460E22FFF799FF38BDE84600405C1F00002400004803500140A043004012
:40040000C0510040D402004812510040E0020048224300400048004004000840B04300407222074B1A70202201331A7006225F3B1A70472210331A70002251331A707047FB
:400440008865004010B500F05FF804460A4A137843F0200313700132137843F0100313700232137843F01003137000F037F8204600F04EF810BD00BF9865004008B5054BA1
:400480001B7823B9FFF7CCFF0122024B1A70FFF7D9FF08BD6C89FF1F084B1B78DBB213F0200F06D0064A1078C0B213F01E0F02D17047002070470020704700BF6965004072
:4004C00048650040034B1B7813F0040FFAD1024B187070476B6500404B650040054A137843F0010313701032137843F001031370704700BFA24300400230800803D000BFBF
:4005000001380046FCD17047EFF3108072B6704780F31088704700BF014B1868704700BF3885FF1F70B50F4E0F4D761BB61018BF002405D0013455F8043B9847A642F9D172
:400540000A4E0B4D01F032FD761BB61018BF002406D0013455F8043B9847A642F9D170BD70BD00BFB81F0000B81F0000C41F0000B81F0000844641EA000313F0030349D195
:40058000403A23D30B6803604B6843608B688360CB68C3600B6903614B6943618B698361CB69C3610B6A03624B6A43628B6A8362CB6AC3620B6B03634B6B43638B6B836397
:4005C000CB6BC36340304031403ADBD230320BD30B6803604B6843608B688360CB68C36010301031103AF3D20C3205D351F8043B40F8043B043AF9D2043208D0D2071CBF8F
:4006000011F8013B00F8013B01D30B8803806046704700BF082A13D38B07B1D010F00303AED0C3F10403D21ADB071CBF11F8013B00F8013BA4D331F8023B20F8023B9FE7F7
:40064000043AD9D3013A11F8013B00F8013BF9D20B7803704B7843708B7883706046704770B4840746D0541E002A41D0CDB2034602E0621EE4B3144603F8015B9A07F8D104
:40068000032C2ED9CDB245EA05250F2C45EA054519D9264603F11002103E0F2E42F8105C42F80C5C42F8085C42F8045C02F11002F2D8A4F1100222F00F0204F00F04103227
:4006C000032C13440DD91E462246043A032A46F8045BFAD8221F22F003020432134404F003042CB1C9B21C4403F8011BA342FBD170BC704714460346C2E700BFF0B50446AB
:4007000089B008460D4600F031F8A36802219A89DFF844E000F1010C012704AE0291910404950590CDF80CC0CDF818E00797019606D4596E42F4005221F400519A81596660
:400740002046194601AA00F065F8002814BF4FF0FF300A2009B0F0BDA81F0000024B01461868FFF7CBBF00BF3885FF1F20F0030110F00300C0F1000051F8043B00F1040C7D
:400780004FEACC0C6FF000021CBF22FA0CF213434FF0010C4CEA0C2C4CEA0C4CA3EB0C0222EA030212EACC1204BF51F8043B0430F4D0C2F1000102EA0102B2FA82F2C2F1F4
:4007C0001F0200EBD2007047024B13B1024800F005B8704700000000E9070000014600200246034600F042BF38B5084B084DED1AAC1018BFED1805D0013C55F8043D984719
:40080000002CF9D1BDE8384001F0DCBBD01F0000D41F00009368002B00F0B1802DE9F04FB1F80CE083B01EF0080F0C468146164628D00B6933B30EF002081FFA88F03568B5
:4008400080B34FF0000BD846DFF8E4A2B8F1000F00F08F80D0454346484628BF5346E1695A46676AB847002840F3A880B36883441B1AC0EB0808B360002BE7D1002003B045
:40088000BDE8F08F4846214600F08EFE002840F04681B4F80CE035680EF002081FFA88F00028CED11EF0010B40F09180D846B8F1000F58D01EF4007FA76862D0B845BA46C7
:4008C000C0F0C2801EF4906F00F0C08067692169236807EB47075B1A07EBD777581C7F10404487423A463CBF07463A461EF4806F009300F0FB801146484600F01BF9009BD0
:400900008246002800F00E811A4621690093FFF731FEA289009B22F4906242F08002A2810AEB0300C4F810A0FB1A6761C24647462060A3605246594600F0CCFBA068226828
:40094000C01BA060404602EB0A032360B36883441B1AC0EB0808B360002B8FD0B4F80CE0B8F1000FA6D1D5F800B0D5F8048008359DE7D5F800B0D5F80480083566E700205C
:40098000704720682369984203D86269904580F08580474528BF474659463A4600F09AFBA3682268DB1B3A44A3602260002B49D14846214600F050FF002843D0A38943F05D
:4009C00040034FF0FF30A38103B0BDE8F08F8046834682460090BAF1000F2BD0009B002B4FD0D045434628BF5346206821691F468842D4F808E0626903D90EEB020C634561
:400A00005EDC934224DB1346676A4846E1695A46B847071ED2DDB8EB070829D0B368BB44DB1BC7EB0A0AB360002B3FF427AFBAF1000FD3D10023D5F800B0D5F804A0009369
:400A40000835C8E7384681E74746C246206871E71A465946019300F03DFBA2682168019BB8EB0708A2EB03020B44A2602360D5D14846214600F0F0FE00289FD1CDF80080D7
:400A8000CCE758460A21524600F0DAFA002841D001300123CBEB00080093A2E76FF00043434528BF434693FBF2F3676A03FB02F34846E1695A46B84700283FF747AF7DE7F6
:400AC00062465946CDF804C000F004FB2368DDF804C0484663442360214600F0BDFEDDF804C000287FF46AAF674694E7484600F059FB009B824600287FF412AF484621692B
:400B000000F096FFA3890C2223F080039BB2C9F8002054E701230AF10108009361E74FF0FF30ACE60C23C9F80030A38947E700BF00FCFF7F2DE9F04F01F10B05162D83B054
:400B4000064627D935F0070500F1B680A94200F2B38000F023FBB5F5FC7F22D2BC4FE80807EBC003DC689C4200F0BC816368E16823F0030323445A68A56842F00102E960BA
:400B800030468D605A6000F00BFB0834204603B0BDE8F08F102900F28F8000F0FFFA1025DCE7680A00F08F80042800F24781A80938304100A64F07EB8101CC68A14206D186
:400BC0000CE0002A80F28280E468A14206D0636823F003035A1B0F2AF3DD013801309C493C6901F1080E744500F07181636823F003035A1B0F2A00F35781002AC1F814E039
:400C0000C1F810E066DAB3F5007F80F02D81DB0801EBC3084FEAA30C4A68012303FA0CF3D8F808C01343C4F808C0C4F80C804B60C8F80840CCF80C408210012494409C424C
:400C400055D8234206D120F003006400234200F10400FAD007EBC008C4468146DCF80C309C4507D135E1002980F24581DB689C4500F02F815A6822F00302511B0F29F2DD95
:400C80001C46DA6854F808CF45F0010941F001081D44C3F804903046CCF80C20C2F808C07D613D61C5F80CE0C5F808E0C5F80480695000F075FA69E7002420460C2333609D
:400CC00003B0BDE8F08F7E213F2073E723445A68E16851E723445A68304642F001025A60083400F05DFA204603B0BDE8F08FBC68636823F00308454504D8C5EB08030F2B65
:400D000000F38C80534BDFF85CA11A68DAF800302A44013304EB080B00F0518102F580520F3222F47F6222F00F0211463046019200F028FCB0F1FF3F8146019A00F04881C6
:400D4000834500F2EF80444BCB4519681144196000F04381DAF80000DFF808E101301BBFCBEB090B5944CEF80090196019F0070100F00881C1F10800C1F58051814408310C
:400D80004A44C2F30B02C2EB010A51463046019300F0F8FB431C019B00F02D81C9EB0002524442F001021968BC425144C7F808901960C9F80420DFF8A0A016D0B8F10F0F00
:400DC00040F2EF806268A8F10C0323F0070302F00102E0184FF0050E1A430F2B6260C0F804E0C0F808E000F20A811C4BBC681A68914288BF19601A4B1A689142626888BF07
:400E0000196022F003029542A2EB050301D80F2B04DC304600F0C4F90024B7E645F0010243F00103254462603046BD6008346B6000F0B6F9204603B0BDE8F08F142869D951
:400E4000542800F29880280B6E304100B2E600BF3C85FF1F7889FF1F7C89FF1F7489FF1F7089FF1F4889FF1F5A0A042A55D9142A00F2A7805B324FEA420C07EB8C0CDCF8B8
:400E80000810DFF8B88161457FD04A6822F00302934202D289688C45F7D1CA687B68E260A1609460CC60C7E645F0010742F001032544676030464D610D61C5F80CE0C5F859
:400EC00008E06B60AA50083400F06AF95EE64B68B2E609F1010919F0030F0CF1080C7FF4BDAE2CE004F108036469A34208BF02303FF475AE3AE61C461A445168DB6854F8E4
:400F0000085F41F0010151603046EB609D6000F047F93BE65B3041004CE69A0938324FEA420CAAE7BC42454B3FF40DAF9C68626822F0030267E7D8F8008098457CD110F00A
:400F4000030FA8F1080300F1FF30F4D17B6823EA04037B6064009C423FF6C9AE002C3FF4C6AE234248467FF475AE6400234200F10400FAD06EE6B0F5AA7F18D8E80B773086
:400F8000410017E64FF48051FAE6D8F8043092104FF0010C0CFA02F21343C8F804300A467DE70123C9F804304C4600222BE740F2545398421CD8A80C7C304100FAE51032CD
:400FC000B3E6542A23D81A0B6E324FEA420C54E7BC68626822F0030215E7CBF30B0000287FF4B8AE4244BB6842F001025A60FCE6FC217E20DEE501224FF0000AD3E604F17B
:401000000801304600F014FDDAF80010EDE6B2F5AA7F04D8DA0B77324FEA420C2DE740F254518A4204D89A0C7C324FEA420C24E74FF0FC0C7E2220E77B688BE73C85FF1F1F
:40104000830770B4C9B240D0541E002A3FD003788B4218BF431C05D11CE0ECB10278013C8A4217D013F0030F184603F10103F4D1032C14D884B103788B420BD00519431C15
:4010800002E002788A4205D0AB42184603F10103F7D1002070BC7047204670BC7047024641EA012646EA0646136810467340A3F1013525EA030313F0803F02F10402D9D1FE
:4010C000043C032C1046EFD8D4E71446D0E71046E0E700BF8842F0B50DD98B1898420AD28118002A54D09A1A13F8014D934201F8014DF9D1F0BD0F2A48D940EA01039B075D
:4011000047D1154600F1100401F1100353F8106C103D44F8106C53F80C6C0F2D44F80C6C53F8086C04F1100444F8186C53F8046C03F1100344F8146CE8D8A2F1100323F034
:401140000F0302F00F0E1033BEF1030F1944034421D90E4674461D1F56F8047B043C032C45F8047FF8D8AEF1040424F0030404342344214402F0030252B1013B0A4411F843
:40118000014B914203F8014FF9D1F0BD0346F3E7F0BD0346F1E77246EEE700BF704700BF704700BF2DE9F04F174683B00D46002900F0E280814607F10B04FFF7EFFF55F873
:4011C000043C162C23F00306A5F108084BD810221446A7424CD8964251DADFF8A4B308EB0601DBF80800884200F0D380486820F0010E8E44DEF804E01EF0010F54D120F02E
:4012000003003044904280F2BD80DB0700F1908055F8083CC3EB080ADAF8043023F0030300EB030E964549DB5746CB688968321FCB60996057F8081FDAF80C30242ACB6035
:40124000996000F23381132A40F2FA802B681B2ACAF808306B68CAF80C3000F23B8108350AF11003EDE024F00704002C2246B0DA0C230020C9F8003003B0BDE8F08F2F46B4
:40128000321B0F2A03F0010340D83343C8F804304644736843F0010373604846FFF780FF384603B0BDE8F08FD90741D455F8083CC3EB080ADAF8043023F0030333449342B7
:4012C00036DB5746DAF80C1057F8080F321F242AC160886000F2F580132A40F2F08029681B2ACAF808106968CAF80C1000F2078108350AF1100229681E4611606968D0468E
:401300005160AB689360DAF80430B9E708EB0401234342F00100C8F804300A4448605368083143F001035360484600F081FBB4E739464846FFF7FEFB07460028ADD055F827
:40134000043CA0F1080123F001024244914200F0A680321F242A00F29380132A65D803462A46116819605168596092689A602946484600F05DFB90E7114603B0BDE8F04F35
:40138000FFF7D8BBCA6889682F46CA600646916076E7416804F1100021F00301314481425ADADB07C4D455F8083CC3EB080ADAF8043023F0030301EB030C60453FF77EAF2C
:4013C0005746DAF80C3057F8081F321F242ACB60996000F2B680132A40F2A7802B681B2ACAF808306B68CAF80C3000F2B38008350AF110032A681A606A685A60AA689A6094
:40140000C4EB0C030AEB040243F00103CBF808205360DAF80430484603F001031C43CAF80440FFF7BDFE38463BE72B681B2A03606B68436028D800F1080305F1080290E7B9
:401440003B462A6876461A606A68D0465A60AA689A60DAF8043013E70B1B08EB040243F00103CBF80820536055F8043C484603F001031C4345F8044CFFF792FE284610E798
:401480002946FFF727FE72E7AB68242A8360EB68C3602BD000F1100305F1100261E750F8042C2F4622F003021644E9E6294638467646D046FFF70EFEDAF80430E0E63A4606
:4014C00019E7294638461E46D046FFF703FEDAF80430D5E6AB68242ACAF81030EB68CAF8143018D010350AF11803AAE72A6900F118030261696905F11802416131E7A9688E
:40150000242ACAF81010E968CAF814100FD010350AF11802EFE62A690AF12003CAF818206A691835CAF81C208BE73B4662E729690AF12002CAF8181069691835CAF81C108B
:40154000D9E629463846CDF804C0FFF7C3FDDDF804C055E7AB68242ACAF81030EB68CAF8143003D010350AF1180343E72A690AF12003CAF818206A691835CAF81C2039E7AE
:401580003C85FF1F38B5074C0023054608462360FEF7BCFD431C00D038BD2368002BFBD02B6038BDA489FF1F38B52F4B054618680C4610B1836B002B36D0A28993B21807BC
:4015C0000CD52069A8B113F001021ED0636900225B42A361A260F0B1002038BDD9063AD5580724D4206942F00803A3819BB20028E9D103F42072B2F5007FE4D02846214657
:4016000000F016FBA3892069DDE7990758BF6269A2600028E0D1A3891A06DED543F04003A3814FF0FF3038BD00F0AAF9C5E7216B49B104F14003994203D0284600F0F8F9DD
:40164000A28900232363206922F02402002392B284E80900C7E742F0400209232B604FF0FF30A28138BD00BF3885FF1F2DE9F047254C064625688846D5F84841924699468E
:40168000C4B360681F2817DC411C76B104EB8003C3F888A0D4F88851012282401543022EC4F88851C3F808911ED0831C6160002044F82380BDE8F087144B03B34FF4C870E4
:4016C000AFF300800446D0B1D5F84831002784E888003846C5F848410121C4F88871C4F88C71002EE1D0D1E7D4F88C311A43C4F88C21DAE705F5A674C5F84841C1E74FF060
:40170000FF30BDE8F08700BFA41F0000000000008B892DE9F0419AB20D46110780463CD46A6843F40063002AAB8165DDAE6A002E4BD09BB203F48052002192B2D8F8004004
:40174000C8F80010002A5BD02A6D5F0705D569682B6B521A0BB1EB6BD21A4046E9690023B047461C56D0AB892A6923F400639BB200212A60DA04AB8169603BD4296BC8F8B3
:40178000004011B305F14003994202D0404600F04FF900202863BDE8F0812E69AEB191072C680CBF6B6900232E60A41BAB600AE0324623466F6A4046E969B8470028A4EB52
:4017C0000004064404DD002CF2DC0020BDE8F081AB894FF0FF3043F04003AB81BDE8F081AB892A6923F400639BB2AB81DB0469602A60C3D52865C1E7EA6B002A96DCE4E7BB
:4018000001234046E969B047431C024619D0AB89AE6A9AE7D8F800100029E1D01D2907D0162905D0AB8943F04003AB81BDE8F081AB89296923F400630022AB8185E8060080
:401840009CE7D8F80030002BE1D01D2B01D0162BBED1C8F80040B8E710B5044682B008B1836B53B1B1F90C0008B902B010BD204602B0BDE81040FFF74BBF019100F080F898
:401880000199EFE7014900F0ABB900BFE11D00002DE9F04F074635487D68002407F53B7204230321F863C7F8E412C7F8E822C7F8E04283B02C606C60AC606C66EC812C6124
:4018C0006C61AC61AB81214605F15C000822FEF7C7FEDFF89CB0BE68DFF898A0DFF89890DFF8988001230922C5F820B0C5F824A0C5F82890C5F82C80ED612146F381B28168
:4019000006F15C0034607460B460746634617461B46108220193FEF7A3FEFD6812200222F661C6F820B0C6F824A0C6F82890C6F82C802146A881EA812C606C60AC606C66F8
:401940002C616C61AC6105F15C000822FEF788FE019BED61C5F820B0C5F824A0C5F82890C5F82C80BB6303B0BDE8F08F85180000111D0000351D00006D1D00008D1D0000ED
:40198000836B03B17047FFF783BF00BF704700BF704700BFF8B50C46224F0646FFF7FEFBBB685D6825F00305291B01F6EF7121F47F6121F00F01A1F58054B4F5805F07DBB6
:4019C00030460021FFF7DEFDBB682B44984204D03046FFF7E5FB0020F8BD30466142FFF7D1FD01300DD0104BBA6819682D1B45F001053046091B55601960FFF7D1FB012007
:401A0000F8BD30460021FFF7BDFDBA68831A0F2BDEDD064C0449246843F00103001B53600860D5E73C85FF1F7C89FF1F4889FF1F00294ED02DE9F0410C468046FFF7AEFB6C
:401A400054F8047C6249A4F1080527F00102AB188E6858689E4220F003005AD0FE0758600BD454F8087C01F1080EED1BAC683A44744567D0EF68E760BC601C186468E407FA
:401A80000CD4544F9C680244BC427CD0D86842F00103E06084606B60AA5003E042F001036B60AA50B2F5007F14D2D20801EBC20301244868921004FA02F29C681043AC606F
:401AC000EB6048609D60E5604046BDE8F041FFF767BB7047530A042B47D8930903F13804600001EB800083683949834243D0596821F00301914202D99B689842F7D1DA6893
:401B0000EA60AB6040469560DD60BDE8F041FFF747BBFF07024407D454F8084C2D1BEB68A8682244C36098602B4B42F001001B6868609A428D60C7D3284B40461968FFF710
:401B400029FFC1E719184968C90709D4D96802449B6842F00100D9608B606860AA50B3E742F001036B60AA50AEE7142B14D803F15B046000B5E74A68A4100120A040024313
:401B80004A601A46BCE742F001034D610D61EC60AC606B60AA5097E7542B04D8130B03F16E0460009DE7B3F5AA7F04D8D30B03F17704600095E740F25450834204D8930CDC
:401BC00003F17C0460008CE7FC207E2489E700BF3C85FF1F4485FF1F4489FF1F7889FF1F2DE9F84310F538761ED0884607464FF000097568B468013D10D4A389013D012BDB
:401C000008D9B4F90E30013304D038462146C04749EA00096B1C04F16804EED13668002EE7D14846BDE8F883B1464846BDE8F8838B899AB212F0020F3CD1F0B50C46B1F909
:401C40000E1091B00029054619DB01AA00F00AF9002812DB029B03F47043A3F50057B7FA87F7B3F5004F4FEA57172AD0A3894FF4806643F40063A3810BE0A3899AB212F075
:401C8000800F43F40063A3810CBF4FF480664026002728463146FEF74DFFA38940B31A4A43F08003EA63A3812060206166619FB911B0F0BD01F1430301220B600B614A611B
:401CC0007047124BA26A9A42D0D1A3894FF480663343A381E664DCE72846B4F90E1000F0D5F80028E4D0A38943F00103A381DFE79A05DDD404F1430243F002030121A38124
:401D0000226022616161D3E7851800006D1D000010B50C46B1F90E1000F0DEF8002803DB236D0344236510BDA38923F48053A38110BD00BF2DE9F0410C4689891D46CB0580
:401D40001646074606D5B4F90E100022022300F0AFF8A18921F48051A1813846B4F90E1032462B46BDE8F04100F014B810B50C46B1F90E1000F09CF8A389421C0EBF23F46F
:401D8000805343F480532065A38110BDB1F90E1000F014B870B5084C06460025084611461A462560FEF778F9431C00D070BD2368002BFBD0336070BDA489FF1F38B5074C4A
:401DC000002305460846236000F09AF8431C00D038BD2368002BFBD02B6038BDA489FF1F00293DD070B505460C4608B1836B7BB3B4F90C300BB9002070BD28462146FFF720
:401E000087FCE36A064633B12846E16998470028B8BF4FF0FF36A3891B061CD4216B41B104F14003994202D02846FFF701FE00232363616C21B12846FFF7FAFD0023636468
:401E4000FFF7A4FD0023A381FFF7A2FD304670BDFFF796FDCCE728462169FFF7E9FDDDE70020704738B5084C0023054608461146236000F04DF8431C00D038BD2368002BBB
:401E8000FBD02B6038BD00BFA489FF1F38B5074C002305460846236000F042F8431C00D038BD2368002BFBD02B6038BDA489FF1F70B5084C06460025084611461A46256040
:401EC00000F036F8431C00D070BD2368002BFBD0336070BDA489FF1F70B5084C06460025084611461A462560FEF7ECF8431C00D070BD2368002BFBD0336070BDA489FF1FA7
:401F0000024B58221A604FF0FF307047A489FF1F024B58221A604FF0FF307047A489FF1F024B58221A600020704700BFA489FF1F024B58221A604FF0FF307047A489FF1F6C
:401F4000000000000A0A20457865637574696F6E2073746172746564200A0000005100401000205100405000F05100401000000001400010001401400004801801408003FF
:401F800000400140000A004C014000020050014020000000001801405402004880000000430000001081FF1F0A000000F8B500BFF8BC08BC9E467047C90700004D00000047
:401FC00089010000F8B500BFF8BC08BC9E46704729000000E81F00000881FF1F48080000580000000000000000000000A889FF1F00000000FC83FF1F6484FF1FCC84FF1FF9
:40200000000000000000000000000000000000000000000000000000000000000000000000000000A01F0000000000000000000000000000000000000000000000000000E1
:402040000000000000000000000000000000000000000000000000000000000000000000000000000000000000000000000000000000000000000000000000000000000060
:4020800000000000000000000000000000000000000000000000000001000000000000000E33CDAB34126DE6ECDE05000B00000000000000000000000000000000000000F3
:4020C00000000000000000000000000000000000000000000000000000000000000000000000000000000000000000000000000000000000000000000000000000000000E0
:40210000000000000000000000000000000000000000000000000000000000000000000000000000000000000000000000000000000000000000000000000000000000009F
:40214000000000000000000000000000000000000000000000000000000000000000000000000000000000000000000000000000000000000000000000000000000000005F
:40218000000000000000000000000000000000000000000000000000000000000000000000000000000000000000000000000000000000000000000000000000000000001F
:4021C00000000000000000000000000000000000000000000000000000000000000000000000000000000000000000000000000000000000000000000000000000000000DF
:40220000000000000000000000000000000000000000000000000000000000000000000000000000000000000000000000000000000000000000000000000000000000009E
:40224000000000000000000000000000000000000000000000000000000000000000000000000000000000000000000000000000000000000000000000000000000000005E
:40228000000000000000000000000000000000000000000000000000000000000000000000000000000000000000000000000000000000000000000000000000000000001E
:4022C00000000000000000000000000000000000000000000000000000000000000000000000000000000000000000000000000000000000000000000000000000000000DE
:40230000000000000000000000000000000000000000000000000000000000000000000000000000000000000000000000000000000000000000000000000000000000009D
:40234000000000000000000000000000000000000000000000000000000000000000000000000000000000000000000000000000000000000000000000000000000000005D
:40238000000000000000000000000000000000000000000000000000000000000000000000000000000000000000000000000000000000000000000000000000000000001D
:4023C00000000000000000000000000000000000000000000000000000000000000000000000000000000000000000000000000000000000000000000000000000000000DD
:402400000000000000000000000000000000000000000000000000001081FF1F00000000000000003C85FF1F3C85FF1F4485FF1F4485FF1F4C85FF1F4C85FF1F5485FF1F8C
:402440005485FF1F5C85FF1F5C85FF1F6485FF1F6485FF1F6C85FF1F6C85FF1F7485FF1F7485FF1F7C85FF1F7C85FF1F8485FF1F8485FF1F8C85FF1F8C85FF1F9485FF1FEC
:402480009485FF1F9C85FF1F9C85FF1FA485FF1FA485FF1FAC85FF1FAC85FF1FB485FF1FB485FF1FBC85FF1FBC85FF1FC485FF1FC485FF1FCC85FF1FCC85FF1FD485FF1FAC
:4024C000D485FF1FDC85FF1FDC85FF1FE485FF1FE485FF1FEC85FF1FEC85FF1FF485FF1FF485FF1FFC85FF1FFC85FF1F0486FF1F0486FF1F0C86FF1F0C86FF1F1486FF1F67
:402500001486FF1F1C86FF1F1C86FF1F2486FF1F2486FF1F2C86FF1F2C86FF1F3486FF1F3486FF1F3C86FF1F3C86FF1F4486FF1F4486FF1F4C86FF1F4C86FF1F5486FF1F1B
:402540005486FF1F5C86FF1F5C86FF1F6486FF1F6486FF1F6C86FF1F6C86FF1F7486FF1F7486FF1F7C86FF1F7C86FF1F8486FF1F8486FF1F8C86FF1F8C86FF1F9486FF1FDB
:402580009486FF1F9C86FF1F9C86FF1FA486FF1FA486FF1FAC86FF1FAC86FF1FB486FF1FB486FF1FBC86FF1FBC86FF1FC486FF1FC486FF1FCC86FF1FCC86FF1FD486FF1F9B
:4025C000D486FF1FDC86FF1FDC86FF1FE486FF1FE486FF1FEC86FF1FEC86FF1FF486FF1FF486FF1FFC86FF1FFC86FF1F0487FF1F0487FF1F0C87FF1F0C87FF1F1487FF1F56
:402600001487FF1F1C87FF1F1C87FF1F2487FF1F2487FF1F2C87FF1F2C87FF1F3487FF1F3487FF1F3C87FF1F3C87FF1F4487FF1F4487FF1F4C87FF1F4C87FF1F5487FF1F0A
:402640005487FF1F5C87FF1F5C87FF1F6487FF1F6487FF1F6C87FF1F6C87FF1F7487FF1F7487FF1F7C87FF1F7C87FF1F8487FF1F8487FF1F8C87FF1F8C87FF1F9487FF1FCA
:402680009487FF1F9C87FF1F9C87FF1FA487FF1FA487FF1FAC87FF1FAC87FF1FB487FF1FB487FF1FBC87FF1FBC87FF1FC487FF1FC487FF1FCC87FF1FCC87FF1FD487FF1F8A
:4026C000D487FF1FDC87FF1FDC87FF1FE487FF1FE487FF1FEC87FF1FEC87FF1FF487FF1FF487FF1FFC87FF1FFC87FF1F0488FF1F0488FF1F0C88FF1F0C88FF1F1488FF1F45
:402700001488FF1F1C88FF1F1C88FF1F2488FF1F2488FF1F2C88FF1F2C88FF1F3488FF1F3488FF1F3C88FF1F3C88FF1F4488FF1F4488FF1F4C88FF1F4C88FF1F5488FF1FF9
:402740005488FF1F5C88FF1F5C88FF1F6488FF1F6488FF1F6C88FF1F6C88FF1F7488FF1F7488FF1F7C88FF1F7C88FF1F8488FF1F8488FF1F8C88FF1F8C88FF1F9488FF1FB9
:402780009488FF1F9C88FF1F9C88FF1FA488FF1FA488FF1FAC88FF1FAC88FF1FB488FF1FB488FF1FBC88FF1FBC88FF1FC488FF1FC488FF1FCC88FF1FCC88FF1FD488FF1F79
:4027C000D488FF1FDC88FF1FDC88FF1FE488FF1FE488FF1FEC88FF1FEC88FF1FF488FF1FF488FF1FFC88FF1FFC88FF1F0489FF1F0489FF1F0C89FF1F0C89FF1F1489FF1F34
:402800001489FF1F1C89FF1F1C89FF1F2489FF1F2489FF1F2C89FF1F2C89FF1F3489FF1F3489FF1F00000200FFFFFFFF000000000000000000000000000000000000000067
:402840000000000000000000000000000000000000000000000000000000000000000000000000000000000000000000000000000000000000000000000000000000000058
:402880000000000000000000000000000000000000000000000000000000000000000000000000000000000000000000000000000000000000000000000000000000000018
:4028C00000000000000000000000000000000000000000000000000000000000000000000000000000000000000000000000000000000000000000000000000000000000D8
:402900000000000000000000000000000000000000000000000000000000000000000000000000000000000000000000000000000000000000000000000000000000000097
:020000040003F7
:0200000480007A
:4000000002520040036500401418014039190140691A0140521B0140014C0140074D01400250014061806440887289388B0F800886048A029602A101A401A801AC01B002FD
:40004000B204B401B501B608BE41BF10D418D804D904DB04DF010010010A054906040A200C410D020E0A0F20102A1682172019101A011B151D211E1A23082410250A270186
:400080002B402C452D08355137043D803EA23F084444452847404E104F2055015B015E10600463026C2A6E046F087540762477248601C0FEC2F4C4D7CAF1CCF0CEF0D0F064
:4000C000D220D621D80CE00802030410060C070808100C090D800E100F131220152C16201743180C19711A111B06230C24142571270E281C2A02301F31C0330F342035303D
:4001000039223B083E103F104002450449FF4A074BFF4C404D204EF04F055008580459045A045F01604061A862406320814882358334844A85F8863488138A2C8D208E48DE
:400140008FC293019501980399909A149B2CA101A413A664A9F8AA40AF01B010B106B268B301B40FB518B7E0B908BA28BE01BF01C024C103C50CC6CEC70BC81DC9FFCAFF4A
:40018000CBFFCEF0CF44D00CD401D804D904DA04DB04DF01E6C0EA40EB0200600102020103100440051006400720081009090F081108120814101604180419021D141E4029
:4001C0002040211022082320254826102740281029042A012C412F083110320833103501361438803A043B043D803E06411044104640471048104B044F0850405240550454
:4002000057505D015E405F18633079017B4089088A0292049404984199019B089D0A9F40A101A204A308A540A610A740B212C0FFC24EC466CAB3CCE6CEDAD0E4D6F08710DB
:400240001040731088409310C408DC01E20110011C0100001F802000010000040418000008C000001C1C23E10008230033000CE33F10000003FF0000004400000CE70018B5
:40028000023C00C22C1F10380F0000C00000A2020000040026040300010C00E021FFFFFF62A0F0410C00000000000211040404040000000100000000000040020010301007
:4002C0000010101200000000000000000000000000000000800040808000800000000000000B0B000000000000000000000000000000000000000000000000000000000076
:4003000000000000000000000000000000000000000000000000000000000000000000000000000000000000000000000000000000000000000000000000000000000000BD
:40034000000000000000000000000000000000000000000000000000000000000000000000000000000000000000000000000000000000000000000000000000000000007D
:40038000000000000000000000000000000000000000000000000000000000000000000000000000000000000000000000000000000000000000000000000000000000003D
:4003C00000000000000000000000000000000000000000000000000000000000000000000000000000000000000000000000000000000000000000000000000000000000FD
:0200000490006A
:0400000000004005B7
:0200000490105A
:04000000BC90ACAF55
:0200000490303A
:02000000E719FE
:0200000490402A
:4000000000000000000000000000000000000000000000000000000000000000000000000000000000000000000000000000000000000000000000000000000000000000C0
:400040000000000000000000000000000000000000000000000000000000000000000000000000000000000000000000000000000000000000000000000000000000000080
:400080000000000000000000000000000000000000000000000000000000000000000000000000000000000000000000000000000000000000000000000000000000000040
:4000C0000000000000000000000000000000000000000000000000000000000000000000000000000000000000000000000000000000000000000000000000000000000000
:0200000490501A
:0C00000000012E16106900012E25F78269
:00000001FF