:400000000080002011000000F5130000F513000008B5044B1A6803F53F5302331A6001F009FA00BFFA46004010B5054C237833B9044B13B10448AFF300800123237010BD63
:40004000B889FF1F0000000090C20000084B10B51BB108480849AFF300800848036803B910BD074B002BFBD0BDE81040184700BF0000000090C20000BC89FF1F0881FF1F2D
:400080000000000008B562B601F074FB2D4802F08FFD2D4802F08CFD01F07EF9013814284BD8DFE800F00B0E1114171A1D202326292C2F3235383B3E4144470000F07AF8B2
:4000C000E7E700F0B9F8E4E700F016F9E1E700F067F9DEE700F006FADBE700F065FAD8E700F0E0FAD5E700F029FBD2E700F052FBCFE700F095FBCCE700F0DCFBC9E700F04A
:400100008BFCC6E700F0D2FCC3E700F013FDC0E700F04CFDBDE700F09BFDBAE700F062FEB7E700F0D1FEB4E700F050FFB1E700F0DFFFAEE701F0CEF8ABE7044802F038FD38
:40014000A7E700BFA0C20000C4C20000ECC20000F8B50C46174600250BE023780A2B02D10D2001F02BFB661C207801F027FB01353446BD42F1DB3846F8BD00BFF8B50F46AD
:400180001446002612E001F003FB054670B101F015FB01360D2D03D10A2001F00FFB0A257B1C3D70013C0A2D02D01F46002CEADC3046F8BD70B588B0184802F0F9FC01AC7B
:4001C000174D0FCD0FC495E8070084E80700039E029D019C134831462A46234602F09CFC049B1C1B0794059A954202DD013C079406E0954204D106998E4201DD013C07948E
:400200000948069902F088FC0848079902F084FC074802F0CDFC08B070BD00BF54C3000038C3000064C300007CC3000090C30000A4C300000000000008B5254802F0B8FC46
:40024000244817A3D3E9002302F066FC22480022224B02F061FC224813A3D3E9002302F05BFC204812A3D3E9002302F055FC1E4811A3D3E9002302F04FFC1C4810A3D3E94D
:40028000002302F049FC1A480FA3D3E9002302F043FC184802F08CFC08BD00BFAFF3008000000000005B9340000000E0CC526A4000000060A61090400000000000C0624022
:4002C0000000000000B3954000000060A6029240B8C30000C8C30000E0C300000000314004C4000024C400004CC4000078C4000094C40000B8C4000010B582B01F4802F062
:4003000057FC0023019300931D4802F051FC1D4C204601A902F03CFD1B4802F049FC2046694602F035FD0098019901F0E9FE70B1164802F03DFC0098019901F025FC01F01C
:40034000CBFB02460B46124802F0E6FB10E0114802F02EFC0020009901F016FC019901F015FC01F0B9FB02460B460B4802F0D4FB0A4802F01DFC02B010BD00BFCCC40000B7
:40038000DCC4000000C5000004C5000020C5000048C5000064C5000094C50000B4C5000030B591B0444802F003FC04AC434D0FCD0FC40FCD0FC495E80F0084E80F000023B7
:4003C0000393029310AC44F83C3D3D4802F0F0FB3C48214602AA03AB02F0DAFC029B10AA02EB830252F8341C019A914201DB0C2B03DD354802F0DCFB5CE00599013905913E
:400400001B2A37DD022B35D1039911F0030F24D12E4B83FB0132CB17C3EB6213642202FB1313A3B9294B83FB0132CB17C3EBE2134FF4C87202FB13132BB9254802F06CFB64
:400440001D2305930CE0234802F066FB08E0204802F062FB1D23059302E01E4802F05CFB059B1C2B06D1019B1C2B03DD1A4802F053FB1FE0019B01330193029A10A901EB2B
:40048000820151F8341C8B4203DD0132029201230193029B0C2B04DD01230293039B013303930E480199029A039B02F035FB0C4802F07EFB11B030BDF8C50000C8C500001B
:4004C00008C6000024C6000030C600001F85EB5164C6000078C6000090C60000DCC60000F4C6000010B582B0234802F061FB002301930093214802F05BFB214C204601A92C
:4005000002F046FC1F4802F053FB2046694602F03FFC019C0098014601F040FC1A4901F0F1FC0146204601F0EDFC044601F0D4FA02460B46154802F0EFFA154802F0ECFA1E
:400540002046144901F0C8FD18B1134802F030FB10E020460F4901F0D3FD40B120460F4901F0C4FD18B10E4802F022FB02E00D4802F01EFB02B010BD08C7000018C7000054
:4005800000C5000058C7000000401C46A0C70000B4C7000000009441D0C700000000B441E0C70000F0C7000010B584B0324802F0FFFA002303930293019300932F4802F0D8
:4005C000ABFA2F4C204603A902AA02F0E1FB2D4802F0A2FA204601A96A4602F0D9FB009A3B2A0EDD284B83FB02139918D317C3EB6113019919440191C3EB03139B00D11A46
:400600000091009B029A1A44019B039919443B2A0BDD1D4B83FB02031344D017C0EB63131944C3EB03139B00D21A17290ADD174C84FB0134CB17C3EBA40404EB4403DB0039
:40064000C91A00E00024124802F066FA012C03D1104802F0ADFA09E0012C04DD0E48214602F05AFA02E00D4802F0A2FA0C4802F09FFA04B010BD00BFFCC700000CC8000080
:400680002CC8000034C8000089888888ABAAAA2A64C8000098C80000A8C80000D8C60000BCC8000010B58CB01F4802F081FA0023019302930393049305930693079308932E
:4006C00009930A930B93194802F026FA00F064FE009001230BE00CAA02EB830252F8342C01320CA901EB830141F8302C01330B2BF1DD002411E00E480CAB03EB840353F8E6
:40070000301C02F009FA0A2C03DC0A4802F004FA02E00A2002F014FA01340B2CEBDD064802F046FA0CB010BDD4C80000E4C8000008C900000CC9000010C9000070B5104894
:4007400002F036FA00252E460EE00E48294602F0E3F900F021FE041E02DA0B4802F028FA002CF2DB26440135092DEEDD07480A21324602F0D1F9064802F01AFA70BD00BF41
:4007800028C9000038C9000054C900008CC90000B4C9000070B586B01C4802F009FA002401940294039404940594194802F000FA0CE0651C1748294602F0AEF900F00EFE70
:4007C00006AB03EB840444F8140C2C46042CF0DD019E01240BE006AB03EB840353F8145C2846314601F078FC00B12E460134042CF1DD304601F070F902460B46064802F02C
:400800008BF9064802F0D4F906B070BDCCC90000DCC9000000CA000014CA000040CA000070B51D4802F0C4F900252E461B4802F0BFF900F0B1FD0446022810D003281AD072
:40084000012823D1164802F067F900F0C7FD0646144802F061F900F0C1FD054616E03046294601F09BFA01F037F902460B460E4802F052F90AE03046294601F087F901F02B
:400880002BF902460B46094802F046F9042CCDD1074802F08DF970BD58CA00006CCA0000C8CA0000E4CA000000CB000014CB000024CB00002DE9F041454802F079F90026A8
:4008C000354622E02846002101F010FC28B1414802F06EF900F082FD05463046002101F005FC28B13C4802F063F900F077FD06462846002101F0FAFB20B93046002101F0C0
:40090000F5FB10B1354802F053F92846002101F0EDFB0028D6D13046002101F0E7FB0028D0D14FF000083FE02D4802F041F9002409E000F053FD0446002101F0D7FB10B19E
:40094000284802F035F92046002101F0CFFB0028EFD13046244901F0D5FA294601F01EFA07464046394601F011F980462846394601F00CF9214601F007F90546002101F0F7
:40098000C9FB40B1284601F0A7F802460B46174802F0C2F808E005F1004001F09DF802460B46134802F0B8F82846002101F0B2FB0028B9D1404601F08FF802460B460D48DB
:4009C00002F0AAF80C4802F0F3F8BDE8F08100BF3CCB000050CB0000A4CB000054CC0000F4CC000040CD00000000C8429CCD0000B8CD0000E8CD000080CE000038B50546AC
:400A0000084601F077F90446284601F073F90146204601F077FA38BD10B5164802F0C8F8154802F0C5F800F0B7FC0446134802F0BFF800F0B1FC01462046FFF7DFFF0446B4
:400A400001F04AF802460B460D4802F065F80D4802F0AEF800F0C2FC214601F09FF901F03BF802460B46084802F056F8074802F09FF810BD98CE0000ACCE0000C4CE000017
:400A8000DCCE0000F8CE000020CF000038CF000010B5044603E0232002F052F8013C002CF9DC0A2002F04CF810BD00BF10B5104802F07EF8002002F06DFA02F081F80124A7
:400AC0000FE002F087F80B4B83FB0032C317C3EBE20303EB83039B00C31A581CFFF7D8FF0134142CEDDD044802F062F810BD00BF50CF00006766666664CF000070B5054638
:400B00000E460A482946324602F006F800F044FC0446A84201DBB04202DD054802F048F8AC42EEDBB442ECDC204670BD7CCF0000A8CF000010B50C4802F03AF80A20142142
:400B4000FFF7DCFF044600200521FFF7D7FF0346064821461A4603FB04F301F0DDFF044802F026F810BD00BFD8CF0000ECCF000008D00000F8B504460D4606680F68304661
:400B8000394601F0B3FA40B13046394601F0BAF920604FF07E532B60F8BD3846314601F0B1F928604FF07E532360F8BD00B583B0144801F0FDFF144801F0FAFF00F00EFCED
:400BC0000190124801F0F4FF00F008FC009001A86946FFF7CFFF019800F07EFF02460B460B4801F099FF009800F076FF02460B46084801F091FF084801F0DAFF03B05DF882
:400C000004FB00BF20D0000034D000004CD0000064D000007CD0000094D00000F8B506460D4607683846096800F0B0FF4FF07C5101F0B4F804463846214600F0A5FF3060BD
:400C40002868214600F0A0FF28602046F8BD00BF2DE9F04F8FB04F4801F0AAFF00230D930C934D4801F0A4FF0CE04C4801F054FF00F0B4FB0D90002101F038FA10B14848A7
:400C800001F096FF0D98002101F030FA0028ECD10CE0444801F040FF00F0A0FB0C90002101F024FA10B1404801F082FF0C98002101F01CFA0028ECD10DA80CA9FFF7AEFF70
:400CC00000F00AFFCDE90A01DDF83480DDF830A04046514601F01EFA38B14046514600F053FF324901F05AF806E05046414600F04BFF2E4901F052F800F0EEFE06460F4674
:400D00004046002101F006FA20B14046274901F045F803E05046254901F040F800F0DCFE04460D464046002101F0F4F910B1DFF880B001E0DFF87CB04046002101F0EAF903
:400D400020B14046194901F029F803E05046174901F024F800F0C0FE804689465046002101F0D8F908B1124B00E0124BCDE90067CDE90245CDF810B0CDE9068908930E48DE
:400D8000DDE90A2301F0C8FE0C4801F011FF0FB0BDE8F08FBCD00000D0D000001CD1000034D100006CD1000090D100000000C842ACD00000B4D00000D4D10000A4D2000070
:400DC000F8B507460D461646002407E055F82400394600F0E3FF45F824000134B442F5DBF8BD00BF70B586B0264801F0E1FE002301930293039304930593234801F08CFE1D
:400E000000F0ECFA0546002101F070F910B11F4801F082FE2846002101F068F90028ECD100240CE0661C1A48314601F075FE00F0D5FA06AB03EB840444F8140C3446042CFC
:400E4000F0DD284601A90522FFF7BAFF114801F0AFFE00230EE05C1C06AA02EB830353F8140C00F039FE02460B460B48214601F053FE2346042BEEDD084801F099FE06B0FC
:400E800070BD00BFBCD20000D0D20000F0D2000034D300005CD3000074D3000080D3000010B50446074B1B681E215A6801F094F9204602F041F80138235C0A2B01D10023AE
:400EC000235410BD3885FF1F10B5A0B02B4801F06FFE2B4B1A6851684B68013B4B60002B04DA1046516801F027FF04E052681368591C11601878B0F1FF3F01D00A28E8D149
:400F0000204801F009FE18A8FFF7CAFF1E4801F003FE10A8FFF7C4FF0021009101A8392201F0A8FD18A802F007F8044610A802F003F8204401303D2803D9144801F038FEC4
:400F400019E0684610A901F079FF684601F0F4FF0F4B1B882DF80030684618A901F06EFF684601F0E9FF02460A48694601F0D4FD094801F01DFE20B010BD00BF98D3000041
:400F80003885FF1FACD30000C4D30000E4D3000010CA000010D4000030D4000038B50C46154601F005FE084B1B68204629465A6801F012F9204601F0BFFF0138235C0A2BCE
:400FC00001D10023235438BD3885FF1F10B5E0B0384801F0EDFD002453945494559456945794589459945A945B945C945D945E94ADF87C41149415A82146F62201F03AFD5D
:40100000009401A821464C2201F034FD2A4B19684A685368013B5360002B04DA0846496801F08AFE06E0244B1B685A681368591C11601878B0F1FF3F0DD00A28E6D10AE08F
:401040001E4853A93222FFF7A9FF9DF84C3113B91B4801F0ADFD9DF84C31002BF0D00AE0184814A9FA22FFF799FF9DF8503013B9154801F09DFD9DF85030002BF0D00AE0DF
:40108000124869465022FFF789FF9DF8003013B90F4801F08DFD9DF80030002BF0D00D4853A914AA6B4601F037FD0B4801F080FD60B010BD48D400003885FF1F5CD400007A
:4010C0007CD40000ACD40000C8D40000FCD4000030D5000064D5000084D5000008B502460248116901F018FD08BD00BF9CD5000030B587B0464801F05BFD002504956BE05D
:40110000444801F055FD444804A901F041FE049B012B02D0022B5ED05EE0404801F048FD3D4805A901F034FE059A531E0B2B4AD803EB83039B003A490B441A61394801F0F7
:4011400037FD394B1A6851684B68013B4B60002B04DA1046516801F0EFFD04E052681368591C11601878B0F1FF3F01D00A28E8D12D4B1B68684610215A6801F02DF8684663
:4011800001F0DAFE013806AB034413F8183C0A2B04D106AB1844002300F8183C00240CE0059B013B06AA224412F8181C03EB83039B0023441A4AD1540134684601F0BCFE83
:4011C000A042EDD802E0194801F0F2FC059B013B0B2BA2D800E00125002D91D0144801F0E7FC00240DE004EB84039B000C4A9B5C33B104EB84039B0010461844FFF76EFF5D
:4012000001340C2CEFDD0B4801F0D2FC07B030BDA8D50000BCD5000008C9000000D600000C8AFF1F14D600003885FF1F28D6000058D6000084D60000F0B589B005460F468D
:40124000164600230093019302930393049305930693ADF81C3017483946324601F05CFC154B1B6868461E215A6800F0B5FF684601F062FE013808AB034413F8203C0A2B41
:4012800004D108AB1844002300F8203C002405E008AB234413F8203C2B550134684601F04BFEA042F4D89DF80030002BD3D009B0F0BD00BF9CD600003885FF1F10B50446EA
:4012C000034801F029FC00F067F8206010BD00BFBCD6000030B5D1B0284801F069FC684600214FF4A07201F0C5FB00252DE0244B1C6860684368013B4360002B04DA2046B9
:40130000616801F019FD06E01D4B1B68586803685A1C02601878B0F1FF3F01D00A28E6D1AC0101350DEB040016492A46FFF784FF0DEB04001E3014492A46FFF77DFF0DEB38
:4013400004003C302946FFF7B9FF042DCFD90F4801F02EFC00240AE0A2010DEB02031A460B4819461E32DB6B01F0D6FB0134042CF2D9084801F01CFC51B030BDE4D600004C
:401380003885FF1FF8D6000000D7000008D7000028D700003CD7000000B583B010E00D4B1A6851684B68013B4B60002B04DA1046516801F0C1FC03E0526813680133136032
:4013C000054801A901F0E4FC0128E8D1019803B05DF804FB3885FF1F08C9000000B583B0034801A901F0D4FC019803B05DF804FB00C5000008B500F097FE03680C2B00D13F
:40140000FEE7FEE708B5094B1A681044084BC31AB3F5006F02DC054B186005E000F084FE0C2303604FF0FF32104608BD0C81FF1F188BFF1F08B5104E104D16E029686B685C
:40144000AC68002204E051F8040B43F8040B0432A242F8D1E868002203E0002143F8041B04328242F9D11035013E002EE6D100F093FFFEF707FEFEE701000000F0DB0000A3
:4014800008B5124A124B1A60124A136843F40073136000230AE0032B03D80F4A52F8231000E00E490E4A42F8231001332F2BF2D90C4B1A780C4B1A70094A0C4B1A6000F029
:4014C000ADF800220A4B1A6008BD00BF0004FA050CED00E014ED00E000000000F51300000080FF1FBC7600400481FF1F08ED00E00081FF1FFEE700BFF0B40022174611E02E
:4015000050F82760F3B226F0FF0608E001EB420511F812406D78A5550132013BDBB2002BF4D10137082FEBD9F0BC7047064B1B78DBB203F00701054A11701B09013213702F
:401540004422034B1A707047CF0100496E5800407658004008B50A46002101F08BFA08BD38B51925234B1D80182202331A70022203F27E231A7008224FF040231A700321F3
:4015800003F5007319701C4B1B78DBB21B490B701B4B1A8041F25122023B1A8000240CE0184B1B7803F0010343EA440404F003044FF4F07000F01CF9013D0DB1032CEFD154
:4015C00015B90320FFF796FF0F4B4FF480721A8007221A7000220D490A704820023108701A700222033B1A70094A137843F00103137038BD8040004008010049A146004012
:4016000022420040254200400440004006400040A243004008B501F0B7F908BD38B572B6304A137843F00403137000240CE02E4963001A1952000A4423445B00C85891887E
:40164000FFF788FF0134E4B2082CF0D900240BE02549A3001A1952000A44906BD16B8022FFF7D8FF0134E4B2002CF1D04FF090401E49FFF741FF1E4A137843F0020313707A
:401680001032137843F0020313701A4C237843F040032370A2F58632513A137843F010031370154815490A22FFF7B4FF144815490822FFF7AFFF144A137843F008031370A8
:4016C000124D61232B70FFF74BFF81232B7001220F4B1A70FFF72AFF0E4821460E22FFF799FF38BDE846004054D700002400004803500140A0430040C0510040D40200482C
:4017000012510040E0020048224300400048004004000840B04300407222074B1A70202201331A7006225F3B1A70472210331A70002251331A7070478865004010B500F075
:401740005FF804460A4A137843F0200313700132137843F0100313700232137843F01003137000F037F8204600F04EF810BD00BF9865004008B5054B1B7823B9FFF7CCFF40
:401780000122024B1A70FFF7D9FF08BDD489FF1F084B1B78DBB213F0200F06D0064A1078C0B213F01E0F02D17047002070470020704700BF6965004048650040034B1B7859
:4017C00013F0040FFAD1024B187070476B6500404B650040054A137843F0010313701032137843F001031370704700BFA24300400230800803D000BF01380046FCD1704777
:40180000EFF3108072B6704780F31088704700BF81F0004102E000BF83F0004330B54FEA41044FEA430594EA050F08BF90EA020F1FBF54EA000C55EA020C7FEA645C7FEAFE
:40184000655C00F0E2804FEA5454D4EB5555B8BF6D420CDD2C4480EA020281EA030382EA000083EA010180EA020281EA0303362D88BF30BD11F0004F4FEA01314FF4801CC2
:401880004CEA113102D0404261EB410113F0004F4FEA03334CEA133302D0524263EB430394EA050F00F0A780A4F10104D5F1200E0DDB02FA0EFC22FA05F2801841F1000194
:4018C00003FA0EF2801843FA05F359410EE0A5F120050EF1200E012A03FA0EFC28BF4CF0020C43FA05F3C01851EBE37101F0004507D54FF0000EDCF1000C7EEB00006EEBB4
:401900000101B1F5801F1BD3B1F5001F0CD349085FEA30004FEA3C0C04F101044FEA445212F5800F80F09A80BCF1004F08BF5FEA500C50F1000041EB045141EA050130BD52
:401940005FEA4C0C404141EB010111F4801FA4F10104E9D191F0000F04BF01460020B1FA81F308BF2033A3F10B03B3F120020CDA0C3208DD02F1140CC2F10C0201FA0CF0F0
:4019800021FA02F10CE002F11402D8BFC2F1200C01FA02F120FA0CFCDCBF41EA0C019040E41AA2BF01EB0451294330BD6FEA04041F3C1CDA0C340EDC04F11404C4F1200242
:4019C00020FA04F001FA02F340EA030021FA04F345EA030130BDC4F10C04C4F1200220FA02F001FA04F340EA0300294630BD21FA04F0294630BD94F0000F83F4801306BF9A
:401A000081F480110134013D4EE77FEA645C18BF7FEA655C29D094EA050F08BF90EA020F05D054EA000C04BF1946104630BD91EA030F1EBF0021002030BD5FEA545C05D106
:401A40004000494128BF41F0004130BD14F580043CBF01F5801130BD01F0004545F0FE4141F470014FF0000030BD7FEA645C1ABF194610467FEA655C1CBF0B46024650EA4F
:401A8000013406BF52EA033591EA030F41F4002130BD00BF90F0000F04BF0021704730B54FF4806404F132044FF000054FF0000150E700BF90F0000F04BF0021704730B53F
:401AC0004FF4806404F1320410F0004548BF40424FF000013EE700BF42004FEAE2014FEA31014FEA02701FBF12F07F4393F07F4F81F06051704792F0000F14BF93F07F4FAD
:401B0000704730B54FF4607401F0004521F0004120E700BF50EA010208BF704730B54FF000050AE050EA010208BF704730B511F0004502D5404261EB41014FF4806404F1ED
:401B400032045FEA915C3FF4DCAE4FF003025FEADC0C18BF03325FEADC0C18BF033202EBDC02C2F1200300FA03FC20FA02F001FA03FE40EA0E0021FA02F11444C1E600BFD8
:401B800080F0004002E000BF81F0004142001FBF5FEA410392EA030F7FEA226C7FEA236C6AD04FEA1262D2EB1363C1BFD218414048404140B8BF5B42192B88BF704710F094
:401BC000004F40F4000020F07F4018BF404211F0004F41F4000121F07F4118BF494292EA030F3FD0A2F1010241FA03FC10EB0C00C3F1200301FA03F100F0004302D54942B2
:401C000060EB4000B0F5000F13D3B0F1807F06D340084FEA310102F10102FE2A51D2B1F1004F40EBC25008BF20F0010040EA03007047490040EB000010F4000FA2F101020B
:401C4000EDD1B0FA80FCACF1080CB2EB0C0200FA0CF0AABF00EBC25052421843BCBFD0401843704792F0000F81F4000106BF80F400000132013BB5E74FEA41037FEA226C7D
:401C800018BF7FEA236C21D092EA030F04D092F0000F08BF0846704790EA010F1CBF0020704712F07F4F04D1400028BF40F00040704712F100723CBF00F50000704700F06A
:401CC000004343F0FE4040F4000070477FEA226216BF08467FEA23630146420206BF5FEA412390EA010F40F4800070474FF0000304E000BF10F0004348BF40425FEA000C4E
:401D000008BF704743F0964301464FF000001CE050EA010208BF70474FF000030AE000BF50EA010208BF704711F0004302D5404261EB41015FEA010C02BF844601460020C3
:401D400043F0B64308BFA3F18053A3F50003BCFA8CF2083AA3EBC25310DB01FA02FC634400FA02FCC2F12002BCF1004F20FA02F243EB020008BF20F00100704702F120021F
:401D800001FA02FCC2F1200250EA4C0021FA02F243EB020008BF20EADC7070474FF0FF0C1CEAD0521EBF1CEAD15392EA0C0F93EA0C0F6FD01A4480EA010C400218BF5FEA9E
:401DC00041211ED04FF0006343EA501043EA5111A0FB01310CF00040B1F5000F3EBF490041EAD3715B0040EA010062F17F02FD2A1DD8B3F1004F40EBC25008BF20F00100E4
:401E0000704790F0000F0CF0004C08BF49024CEA502040EA51207F3AC2BFD2F1FF0340EAC250704740F400004FF00003013A5DDC12F1190FDCBF00F000407047C2F1000283
:401E4000410021FA02F1C2F1200200FA02FC5FEA310040F1000053EA4C0308BF20EADC70704792F0000F00F0004C02BF400010F4000F013AF9D040EA0C0093F0000F01F09D
:401E8000004C02BF490011F4000F013BF9D041EA0C018FE70CEAD15392EA0C0F18BF93EA0C0F0AD030F0004C18BF31F0004CD8D180EA010000F00040704790F0000F17BFFB
:401EC00090F0004F084691F0000F91F0004F14D092EA0C0F01D142020FD193EA0C0F03D14B0218BF084608D180EA010000F0004040F0FE4040F40000704740F0FE4040F4A7
:401F0000400070474FF0FF0C1CEAD0521EBF1CEAD15392EA0C0F93EA0C0F69D0A2EB030280EA010C49024FEA402037D04FF0805343EA111143EA10130CF000408B4238BF24
:401F40005B0042F17D024FF4000C8B4224BF5B1A40EA0C00B3EB510F24BFA3EB510340EA5C00B3EB910F24BFA3EB910340EA9C00B3EBD10F24BFA3EBD10340EADC001B0173
:401F800018BF5FEA1C1CE0D1FD2A3FF650AF8B4240EBC25008BF20F0010070470CF0004C4CEA50207F32C2BFD2F1FF0340EAC250704740F400004FF00003013A37E792F0FB
:401FC000000F00F0004C02BF400010F4000F013AF9D040EA0C0093F0000F01F0004C02BF490011F4000F013BF9D041EA0C0195E70CEAD15392EA0C0F08D142027FF47DAF35
:4020000093EA0C0F7FF470AF084676E793EA0C0F04D14B023FF44CAF08466EE730F0004C18BF31F0004CCAD130F000427FF45CAF31F000437FF43CAF5FE700BF4FF0FF3CD4
:4020400006E000BF4FF0010C02E000BF4FF0010C4DF804CD4FEA40024FEA41037FEA226C18BF7FEA236C11D001B052EA530C18BF90EA010F58BFB2EB030088BFC81738BF4C
:402080006FEAE17018BF40F0010070477FEA226C02D15FEA402C05D17FEA236CE4D15FEA412CE1D05DF8040B704700BF844608466146FFE70FB5FFF7C9FF002848BF10F11D
:4020C000000F0FBD4DF808EDFFF7F4FF0CBF012000205DF808FB00BF4DF808EDFFF7EAFF34BF012000205DF808FB00BF4DF808EDFFF7E0FF94BF012000205DF808FB00BFA1
:402100004DF808EDFFF7D2FF94BF012000205DF808FB00BF4DF808EDFFF7C8FF34BF012000205DF808FB00BF014B1868704700BF3885FF1F012A4DDD2DE9F04780461D46C9
:402140008946164610B1836B002B3DD04F46013E18E0B44228BF3446D5F800A0224650460A2100F0C7FBF0B96A682B68121B23446A60384651462B60224600F005FC361B2C
:4021800027440BD06C68002CE3D14046294600F04BFD08B96C68DCE7B94518D000233B704846BDE8F0876B680130CAEB00041B1B28606B6051462246384600F0E5FB00238C
:4021C0003B554846BDE8F08700F090F8BEE70020BDE8F0870020704730B40D46034C134601462A46206830BCFFF7A4BF3885FF1F014900F0A9B800BFA96300002DE9F04F7C
:40220000074635487D68002407F53B7204230321F863C7F8E412C7F8E822C7F8E04283B02C606C60AC606C66EC812C616C61AC61AB81214605F15C00082200F01BFCDFF8F3
:402240009CB0BE68DFF898A0DFF89890DFF8988001230922C5F820B0C5F824A0C5F82890C5F82C80ED612146F381B28106F15C0034607460B460746634617461B461082206
:40228000019300F0F7FBFD6812200222F661C6F820B0C6F824A0C6F82890C6F82C802146A881EA812C606C60AC606C662C616C61AC6105F15C00082200F0DCFB019BED61E1
:4022C000C5F820B0C5F824A0C5F82890C5F82C80BB6303B0BDE8F08FF1210000B92D0000DD2D0000152E0000352E0000836B03B17047FFF783BF00BF704700BF704700BF19
:402300002DE9F04110F538771AD0884600267D68BC68013D0ED4A389013D012B06D9B4F90E30013302D02046C04706436B1C04F16804F0D13F68002FE9D13046BDE8F081BA
:402340003E463046BDE8F0812DE9F84310F538761ED0884607464FF000097568B468013D10D4A389013D012B08D9B4F90E30013304D038462146C04749EA00096B1C04F1CF
:402380006804EED13668002EE7D14846BDE8F883B1464846BDE8F88370B50F4E0F4D761BB61018BF002405D0013455F8043B9847A642F9D10A4E0B4D0BF006FC761BB610C0
:4023C00018BF002406D0013455F8043B9847A642F9D170BD70BD00BFD4DB0000D4DB0000E0DB0000D4DB00002DE9F04F01F10B05162D83B0064627D935F0070500F1B68068
:40240000A94200F2B38000F083FBB5F5FC7F22D2BC4FE80807EBC003DC689C4200F0BC816368E16823F0030323445A68A56842F00102E96030468D605A6000F06BFB083476
:40244000204603B0BDE8F08F102900F28F8000F05FFB1025DCE7680A00F08F80042800F24781A80938304100A64F07EB8101CC68A14206D10CE0002A80F28280E468A142E2
:4024800006D0636823F003035A1B0F2AF3DD013801309C493C6901F1080E744500F07181636823F003035A1B0F2A00F35781002AC1F814E0C1F810E066DAB3F5007F80F099
:4024C0002D81DB0801EBC3084FEAA30C4A68012303FA0CF3D8F808C01343C4F808C0C4F80C804B60C8F80840CCF80C408210012494409C4255D8234206D120F00300640014
:40250000234200F10400FAD007EBC008C4468146DCF80C309C4507D135E1002980F24581DB689C4500F02F815A6822F00302511B0F29F2DD1C46DA6854F808CF45F0010996
:4025400041F001081D44C3F804903046CCF80C20C2F808C07D613D61C5F80CE0C5F808E0C5F80480695000F0D5FA69E7002420460C23336003B0BDE8F08F7E213F2073E73B
:4025800023445A68E16851E723445A68304642F001025A60083400F0BDFA204603B0BDE8F08FBC68636823F00308454504D8C5EB08030F2B00F38C80534BDFF85CA11A6868
:4025C000DAF800302A44013304EB080B00F0518102F580520F3222F47F6222F00F0211463046019200F0C2FBB0F1FF3F8146019A00F04881834500F2EF80444BCB451968FF
:402600001144196000F04381DAF80000DFF808E101301BBFCBEB090B5944CEF80090196019F0070100F00881C1F10800C1F58051814408314A44C2F30B02C2EB010A5146DD
:402640003046019300F092FB431C019B00F02D81C9EB0002524442F001021968BC425144C7F808901960C9F80420DFF8A0A016D0B8F10F0F40F2EF806268A8F10C0323F006
:40268000070302F00102E0184FF0050E1A430F2B6260C0F804E0C0F808E000F20A811C4BBC681A68914288BF19601A4B1A689142626888BF196022F003029542A2EB050358
:4026C00001D80F2B04DC304600F024FA0024B7E645F0010243F00103254462603046BD6008346B6000F016FA204603B0BDE8F08F142869D9542800F29880280B6E3041001B
:40270000B2E600BF3C85FF1FE089FF1FE489FF1FDC89FF1FD889FF1F4889FF1F5A0A042A55D9142A00F2A7805B324FEA420C07EB8C0CDCF80810DFF8B88161457FD04A6808
:4027400022F00302934202D289688C45F7D1CA687B68E260A1609460CC60C7E645F0010742F001032544676030464D610D61C5F80CE0C5F808E06B60AA50083400F0CAF9B3
:402780005EE64B68B2E609F1010919F0030F0CF1080C7FF4BDAE2CE004F108036469A34208BF02303FF475AE3AE61C461A445168DB6854F8085F41F0010151603046EB603B
:4027C0009D6000F0A7F93BE65B3041004CE69A0938324FEA420CAAE7BC42454B3FF40DAF9C68626822F0030267E7D8F8008098457CD110F0030FA8F1080300F1FF30F4D143
:402800007B6823EA04037B6064009C423FF6C9AE002C3FF4C6AE234248467FF475AE6400234200F10400FAD06EE6B0F5AA7F18D8E80B7730410017E64FF48051FAE6D8F846
:40284000043092104FF0010C0CFA02F21343C8F804300A467DE70123C9F804304C4600222BE740F2545398421CD8A80C7C304100FAE51032B3E6542A23D81A0B6E324FEAE6
:40288000420C54E7BC68626822F0030215E7CBF30B0000287FF4B8AE4244BB6842F001025A60FCE6FC217E20DEE501224FF0000AD3E604F10801304603F0B2FFDAF80010AD
:4028C000EDE6B2F5AA7F04D8DA0B77324FEA420C2DE740F254518A4204D89A0C7C324FEA420C24E74FF0FC0C7E2220E77B688BE73C85FF1F830770B4C9B240D0541E002AD4
:402900003FD003788B4218BF431C05D11CE0ECB10278013C8A4217D013F0030F184603F10103F4D1032C14D884B103788B420BD00519431C02E002788A4205D0AB421846C9
:4029400003F10103F7D1002070BC7047204670BC7047024641EA012646EA0646136810467340A3F1013525EA030313F0803F02F10402D9D1043C032C1046EFD8D4E71446CC
:40298000D0E71046E0E700BF844641EA000313F0030349D1403A23D30B6803604B6843608B688360CB68C3600B6903614B6943618B698361CB69C3610B6A03624B6A43620D
:4029C0008B6A8362CB6AC3620B6B03634B6B43638B6B8363CB6BC36340304031403ADBD230320BD30B6803604B6843608B688360CB68C36010301031103AF3D20C3205D3ED
:402A000051F8043B40F8043B043AF9D2043208D0D2071CBF11F8013B00F8013B01D30B8803806046704700BF082A13D38B07B1D010F00303AED0C3F10403D21ADB071CBF3A
:402A400011F8013B00F8013BA4D331F8023B20F8023B9FE7043AD9D3013A11F8013B00F8013BF9D20B7803704B7843708B7883706046704770B4840746D0541E002A41D08B
:402A8000CDB2034602E0621EE4B3144603F8015B9A07F8D1032C2ED9CDB245EA05250F2C45EA054519D9264603F11002103E0F2E42F8105C42F80C5C42F8085C42F8045C09
:402AC00002F11002F2D8A4F1100222F00F0204F00F041032032C13440DD91E462246043A032A46F8045BFAD8221F22F003020432134404F003042CB1C9B21C4403F8011B33
:402B0000A342FBD170BC704714460346C2E700BF704700BF704700BF0FB410B5074B82B004AC54F8042B186823468168019400F047FA02B0BDE8104004B070473885FF1F4E
:402B4000024B01461868826804F080BE3885FF1FF0B5044689B008460D4600F0EDF9A36802219A89DFF844E000F1010C012704AE0291910404950590CDF80CC0CDF818E0E3
:402B80000797019606D4596E42F4005221F400519A8159662046194601AA03F019FF002814BF4FF0FF300A2009B0F0BDD0C80000024B01461868FFF7CBBF00BF3885FF1F3D
:402BC000034B00221B68C3F8A800C3F8AC2070473885FF1F30B40C4B0C4C19680C4DD1F8A820D1F8AC0004FB02F4A2FB052305FB00400132034443F10003C1E92A2323F03E
:402C0000004030BC704700BF3885FF1F2DF451582D7F954C838903F00903092B01D00020704703F0BDBC00BFF8B50C46054610B1836B002B45D0A3899AB2970407D4626EB7
:402C400043F4005322F400526266A3819AB200219606616032D4500721D5216B61B104F14003994202D0284603F0DAFDE36B002063602063002B3ED12369002B4BD0A789AE
:402C8000BEB2B30720D1226928462260256AE1696369A8470028606009DD0020F8BDD1063ED512072AD443F00403A381E4E7A3891BD0002243F04003A38162604FF0FF301A
:402CC000F8BDFFF713FBB6E7194A01231068A381184906F00906FFF713FB092EA781D2D12846214603F0A2FBCDE743F020034FF0FF30A381F8BDA36B2360F8BD284621461E
:402D000003F038FC0028D9D1A389A06023F00803A0619BB2C7E72846214604F02DF8AEE743F0400309222A604FF0FF30A381F8BD9CD70000152C000038B50C46054608B168
:402D4000836B63B128462146FFF76EFF50B994E80C00013B511C84E80A00107838BDFFF7C5FAEFE74FF0FF3038BD00BF38B5074C0023054608462360FEF744FB431C00D05D
:402D800038BD2368002BFBD02B6038BD148BFF1F0FB410B5074B82B004AC54F8042B186823464168019402F067FA02B0BDE8104004B070473885FF1F10B50C46B1F90E10E3
:402DC00004F070FD002803DB236D0344236510BDA38923F48053A38110BD00BF2DE9F0410C4689891D46CB051646074606D5B4F90E100022022303F0ABFFA18921F4805159
:402E0000A1813846B4F90E1032462B46BDE8F04102F046BA10B50C46B1F90E1003F098FFA389421C0EBF23F4805343F480532065A38110BDB1F90E1002F0B8BA830710B5D1
:402E4000044610D10268A2F1013323EA020313F0803F08D150F8042FA2F1013323EA020313F0803FF6D003781BB110F8013F002BFBD100F003F8204610BD00BF80EA01029D
:402E8000844612F0030F4FD111F0030F32D14DF8044D11F0040F51F8043B0BD0A3F101329A4312F0803F04BF4CF8043B51F8043B16D100BF51F8044BA3F101329A4312F0DA
:402EC000803FA4F101320BD14CF8043BA24312F0803F04BF51F8043B4CF8044BEAD023460CF8013B13F0FF0F4FEA3323F8D15DF8044B704711F0010F06D011F8012B0CF821
:402F0000012B002A08BF704711F0020FBFD031F8022B12F0FF0F16BF2CF8022B8CF8002012F47F4FB3D1704711F8012B0CF8012B002AF9D1704700BF20F0030110F00300F7
:402F4000C0F1000051F8043B00F1040C4FEACC0C6FF000021CBF22FA0CF213434FF0010C4CEA0C2C4CEA0C4CA3EB0C0222EA030212EACC1204BF51F8043B0430F4D0C2F195
:402F8000000102EA0102B2FA82F2C2F11F0200EBD200704710B5094B82B0044669461868002203F0A5FE002804DB009804B1206002B010BD4FF0FF30FAE700BF3885FF1F01
:402FC0002DE9F04FBFB01C4689460892074603F0BBFE03680C9418461593FFF7ADFF16901FB1BB6B002B00F0F480B9F80C2093B29D040AD4D9F8641042F4005321F4005196
:40300000A9F80C30C9F864109BB2180740F1AB80D9F81020002A00F0A68003F01A030A2B00F0AD8000231A460DF1B80C6446B846119314931793099323932293CDF884C021
:4030400012921392089D2B78002B00F0C680252B02D1C2E0252B03D015F8013F002BF9D1089BEE1A7EB1229B239A013308993244072B84E842002392229300F39380083409
:40308000099B334409932B78002B00F0938000234FF0FF3A1A465646691C6D788DF867300A9306934B1CA5F12001582900F2C083DFE811F05602BE03BE039902BE03BE03A2
:4030C000BE03BE03BE03BE03A0026402BE03F201F002BE036E02750275027502750275027502750275027502BE03BE03BE03BE03BE03BE03BE03BE03BE03BE0366032703A1
:40310000BE032703BE03BE03BE03BE035F03BE03BE030A03BE03BE03BE03BE03BE03A803BE03BE037F03BE03BE03BE03BE03BE03BE03BE03BE03BE03BE039403AE02270340
:4031400027032703CC02AE02BE03BE03D302BE03DD02F90184025D02BE030B02BE039500BE03BE0330023846494602F0ADF8A0B9B9F80C3003F01A030A2B7FF453AFB9F979
:403180000E30002BFFF64EAF38464946089A234601F03AF93FB0BDE8F08F4FF0FF303FB0BDE8F08F4046494621AA07F02DFC40B92EAC65E7239B23B14046494621AA07F05C
:4031C00023FCB9F80C305A06E7D409983FB0BDE8F08F3846FFF78AF807E7089D53E70893069BB2469E0640F117830C9F073727F0070303F10802D3E900670C92012300227F
:403200009446CDF83CA08DF86720BAF1000F03DB069A22F08002069256EA070240F02A83BAF1000F00F02884012B00F02B83022B00F075842EA9F20842EA4772F80806F09B
:40324000070307461646303356EA070201F8013DF1D1069A0E91D00700F113852EAB5B1A0B930B9A53469245B8BF1346079300231093BCF1000F02D0079B01330793069B87
:4032800013F002030D9302D0079B02330793069B13F0840640F0EB820A9B079AC2EB030ABAF1000F40F3E382BAF1100F2399229AB44FC8BF4FF0100B07DC1EE0AAF1100A4A
:4032C000BAF1100F04F1080417DD01321031072A2391229284E88008F0DD4046494621AA07F092FB00287FF46CAFAAF1100ABAF1100F2EAC2399229AE7DC01320AEB010B5F
:40330000072ACDF88CB0229284E8800400F3A4829DF867C00834BCF1000F0FD0229B0BF1010B01330DF167010122072BCDF88CB0229384E8060000F3BD8308340D9B73B1F4
:40334000229B0BF1020B01331AA90222072BCDF88CB0229384E8060000F3B8830834802E00F0FB820F9B0B9AC2EB030ABAF1000F32DDBAF1100F229A834F22DD10265B468D
:4033800006E0AAF1100ABAF1100F04F1080417DD01321033072A2393229227606660F0DD4046494621AA07F02FFB00287FF409AFAAF1100ABAF1100F2EAC239B229AE7DC9E
:4033C0009B460132D344072ACDF88CB0229284E8800400F363830834069BDB0500F16682229B0B9901330E9A8B44072BCDF88CB022606160229300F380830834069B5907F3
:403400003AD50A9B079A9D1A002D35DD102D229B5C4F1EDD10265A4604E0103D102D04F1080415DD01331032072B2392229327606660F2DD4046494621AA07F0E5FA00285E
:403440007FF4BFAE103D102D2EAC239A229BE9DC93460133AB44072BCDF88CB022932760656009DD4046494621AA07F0CDFA00287FF4A7AEDDF88CB0099B079A0A998A4260
:40348000ACBF9B185B180993BBF1000F40F0EA82002322932EACD5E51946069840F0040006901D78FEE50893069BB24613F0200300F015810C9F073727F0070303F10802F5
:4034C000D3E900670C92002399E60C9A089313684FF0000B0E938DF867B0171D002B00F07E86002E0E98C0F2308659463246FFF701FA002800F0AF860E9BCDF83CB0C31A0B
:403500000B930C9723EAE3730793CDF840B09DF867C0AEE608931D4BB2461493069B8DF86720990640F14F810C9F073727F0070303F108020C92D3E90067069BDB0740F1DC
:40354000078356EA070300F00383069A302342F002028DF868308DF86950069202234EE6002A40F031851D78194620229AE5069941F0200106911D78194693E51D781946DF
:403580002B228FE5F0D70000A0D70000D4D70000069941F0800106911D78194682E5A5F13000002113F8015B01EB810100EB4101A5F130000928F5D90A9174E50C9A069937
:4035C000089330238DF86830B44BB2467825166841F002010432149306910C9200278DF8695002230BE6069941F0010106911D78194657E50C9D296808460A91294600289A
:4036000001F10401C0F26F850C911D78194649E50893069BB24699068DF8672040F1BC800C9F073727F00707D7E9002307F1080116461F460C91002A73F10003C0F2E683E6
:403640009DF867C0CDF83CA00123DEE5069941F0400106911D78194624E51D7806996C2D00F03A8541F01001069119461AE50893069B8DF867209A0640F175840C9A13469D
:4036800004330C93099B1168DF171A463B46C1E90023D7E41D78591C2A2D00F09E86A5F1300009280B464FF000063FF6FCAC13F8015B06EB860600EB4606A5F130000928C7
:4036C000F5D946EAE676EEE40893069BB24643F010030693069B13F020037FF4EBAE069A12F0100240F08182069B13F0400300F07C820C9913460A4604320E8800270C921D
:403700007DE50893069B0C9F1B07B2468DF86720B34607F1070740F10B8427F0070303F108020C921A685B68129213931399129804F0BCFA01281399129840F07583002246
:40374000002308F0E5F9002840F06B859DF867C0534A544B069E472DD8BF1A460321002026F0800607910F9006960E920B9110907FE5069941F0080106911D78194691E435
:403780000893069BB24643F010030693069B8DF8672099063FF544AF069BDA0640F1D3830C9A13461E680433F7170C9332463B4641E708933C4BB2461493069B8DF8672083
:4037C00099063FF5B1AE069BDA0640F1F1830C9A00271346043316680C93AEE60C980893026800238DF89020024601219C4604328DF867300F93109324AB07910C920B91DE
:403800000E933CE50893069BB24643F010030693069B9E063FF5E9AC069BD80640F1BA830C9A134604321E68002701230C92E6E408938DF86720002D3FF4BCAC0023012295
:403840009C468DF867300F93109324AB07928DF890500B920E9312E54046494621AA07F0D3F800287FF4ADAC9DF867C02EACDDF88CB050E5012B7FF4DAAC002F08BF0A2E3E
:4038800080F0E4810DF1F80B30360BF8416D2EABCBEB03030B93CDF838B0E2E4D4D70000B4D70000B0D70000C0D70000652D40F38A80129813990022002308F01FF900287F
:4038C00000F04981229BBA4901330BF1010B0122072BCDF88CB0229384E8060000F3858308341B9B119A934203DB069BDF077FF585AD229B16990133159A8B44072BCDF808
:403900008CB022606160229300F3F4830834119B5D1E002D7FF772AD102D229BA54F40F3E28010265A4604E00834103D102D40F3D98001331032072B2392229327606660D6
:40394000F2DD4046494621AA07F05EF800287FF438AC2EAC239A229BE7E70A9B079A9E1A002E7FF7FFAC102E229A924F1FDD4FF0100A5B4604E0103E102E04F1080415DD29
:4039800001321033072A2393229284E88004F2DD4046494621AA07F037F800287FF411AC103E102E2EAC239B229AE9DC9B460132B344072ACDF88CB022922760666000F303
:4039C00018820834CEE4119B229D012B0BF1010605F1010540F3C7810E9A0123072D239622602295636000F3D7810834169A0135159B1644072D239622952360626000F326
:403A0000D7810834002312981399002208F076F8119B002840F0F1800E9A013B013501321E44072D226022952396636000F3D5810834179A013506EB020B1DAB072DCDF8B9
:403A40008CB02295626023607FF7D7AC4046494621AA06F0D9FF00287FF4B3AB2EACDDF88CB0CBE44046494621AA06F0CDFF00283FF40EADFFF7A5BB002B4AD1069BDA07FE
:403A800047D50DF1F80B30230BF8413D2EABCBEB03030B93CDF838B0FFF7E3BB4046494621AA06F0B1FF00287FF48BAB2EACDDF88CB091E44046494621AA06F0A5FF002848
:403AC0007FF47FAB2EACDDF88CB037E44046494621AA06F099FF00287FF473AB2EACDDF88CB03CE493460133AB44072BCDF88CB02293276065607FF780AC4046494621AA3F
:403B000006F082FF00287FF45CABDDF88CB02EAC74E42EABCDF82CA00E93FFF7A2BB14980DF1B80B330943EA0773390906F00F020F461E46835C0BF8013D56EA0703F1D14D
:403B40005A462EAB9B1ACDF838B00B93FFF789BB0223FFF754BB1B9D002D40F35282119A109913468A42A8BF0B461D460E99002D01EB020A0CDD0A46229BAB440133072BD1
:403B8000CDF88CB084E82400229300F305830834109B002DA8BF5B1B002B1D4640F38B80102D229B034F40F3148210265A4608E030D30000A0D700000834103D102D40F341
:403BC000078201331032072B2392229327606660F2DD4046494621AA06F016FF00287FF4F0AA2EAC239A229BE7E70C9900270A4604320E680C92FFF702BB03F1FF3ABAF1DB
:403C0000000F7FF716AFBAF1100F864FC8BF4FF0100B07DCD8E00834AAF1100ABAF1100F40F3D28001351036072D2396229584E88008F0DD4046494621AA06F0E5FE00281D
:403C40007FF4BFAA2EAC239E229DE5E70DF1B80BCDF81CC0304639460A22002308F018F83032304639460BF8012D00230A2208F00FF806460F4656EA0703EBD1DDF81CC066
:403C80005EE7302B00F042820E9B2EA8013B1A460E93821A30230B9201F8013CFFF7E1BA4046494621AA06F0AFFE00287FF489AADDF88CB02EAC0E9A10991B9B0A441646B4
:403CC000119A934240DB069AD5073DD4119AC6EB0A05D31A9D42A8BF1D46002D2F460BDD229AAB440132072ACDF88CB084E8C000229200F387820834002FB4BF1D46DD1BEC
:403D0000002D7FF77BAB102D229B464F7FF7EBAE10265A4604E00834103D102D7FF7E2AE01331032072B2392229327606660F2DD4046494621AA06F067FE00287FF441AAA7
:403D40002EAC239A229BE7E7229A1698013215998344072ACDF88CB021606060229200F331820834B2E7069BD8073FF535AE0E9A0123072D23962260229563607FF758AEA5
:403D80004046494621AA06F03FFE00287FF419AA2EAC239E229D4CE64046494621AA06F033FE00287FF40DAA2EAC239E229D1DE64046494621AA06F027FE00287FF401AA0F
:403DC0002EAC239E229D1DE601355644072D2396229584E880047FF72BAE4046494621AA06F012FE00287FF4ECA9239E229D2EAC1FE64046494621AA06F006FE00287FF4C9
:403E0000E0A92EACDDF88CB0FFF7ACBA4FF02D0C764267EB47078DF867C0CDF83CA00123FFF7F3B9A0D7000003F040FF002800F02D8125F02003BAF1FF3F0B9300F07882B7
:403E4000472B05D1BAF1000F14BFD3464FF0010B069B43F480730F93139BB3F1000A129B0793B7BF5346002303F1004A2D23662D0D9300F07381462D00F070810B9B022006
:403E8000452B14BF5F460BF101071BA98DE8810002911CA81FA90390079A53460491404601F02EFB672D0E9002D0472D40F06681069BDB0740F159820E9BDE190798514647
:403EC0000022002307F01AFE002840F0C2811F9B9E4206D930215A1C1F9219701F9B9E42F9D80E9A9B1A11930B9B472B1B9B00F0A981652D40F3BB81662D109300F0288234
:403F0000119B109A934200F31682069BD90700F13C8222EAE2730B920D9A002A40F0878107930F9B9DF867C006930F92FFF7A1B927F007073B6812937B68139307F1080311
:403F40000C93FFF7F3BB069B0C9A13F0400F13463FF428ACB2F900600433F7170C9332463B46FFF768BB069BDB060BD4069B5F0608D50C9A136804320C92BDF824201A8038
:403F8000FFF760B80C9A136804320C92099A1A60FFF758B8069B0C9A13F0400F13463FF441AC16880432002701230C92FFF727B9069B0C9A13F0400F13467AD00433168825
:403FC00000270C93FFF7B9BA19461D78FFF76AB893460133AB44072BCDF88CB02293276065603FF75DAE083465E64046494621AA06F00AFD00287FF4E4A82EACDDF88CB09F
:404000006FE4229BB04901330BF1010B0122072BCDF88CB0229384E8060050DC08342DB9119B1BB9069BDE077FF5E8A9229B1699013315980BEB0102072B239284E80300C9
:40404000229300F3688108346D42002D6FDD102D9E4FC8BF102605DCAAE00834103D102D40F3A68001331032072B2392229327606660F2DD4046494621AA06F0C5FC0028ED
:404080007FF49FA82EAC239A229BE7E7904A914B069E472DD8BF1A46032126F080060F900791069610900E920B919DF867C0FFF7E0B80433166800270C93FFF73EBA4046B7
:4040C000494621AA06F0A0FC00287FF47AA82EAC1B9DDDF88CB0A2E741F0200106915D78591CFEF7DFBF0A980C9140420A901946FFF7D3B94046494621AA06F085FC00286A
:404100007FF45FA82EACDDF88CB000E40E9A2EAB9B1A0B93FFF7A5B84046494621AA06F073FC00287FF44DA8239A229B2EAC1198013302EB000B0E9A072BCDF88CB0229381
:40414000226060607FF759A9D7E4CDF83CB0FEF7F3FE0C970B900346FFF7D4B903201BA98DE8010802911CA81FA90390079A53460491404601F0C4F95F460E900E9BDE192C
:404180000B9B462B7FF49AAE0E9B1B78302B00F0EE801B9F3E4491E64046494621AA06F033FC00287FF40DA82EACDDF88CB0EFE401332A44072B2392229327606560ABDC61
:4041C0000834B4E74046494621AA06F01DFC00287EF4F7AF2EAC1B9BDDF88CB076E53346062E28BF06230B9323EAE373DDF838C00793394B0C97CDF83CC0CDF840C00E934A
:40420000FFF737B84046494621AA06F0FDFB00287EF4D7AF1B9B119ADDF88CB0D31A2EAC6AE52D239C468DF86730FFF791BA07930F9B4FF02D0C069300238DF867C00F93CE
:40424000FFF71AB8DF1C11DB9B450FDB1093672556E6334645E626EAE6730F900C9710909DF867C007930B96FFF703B8023D013B002B1B93BABF5B422D222B22092B8DF804
:4042800074508DF8752040F386800DF183000146124A82FB0326DA17C2EBA60606EB8602A3EB42023032092E334601F8012DEFDC0A463033DEB202F8016D904240F2A080B5
:4042C0000DF176020B460DE030D30000A0D70000BCD70000B8D70000E8D700006766666613F8016B834202F8016BF9D121AB5B1A0DF1760213441DAA9B1A119A1793012AA0
:4043000013440B9357DD0B9B002201330B93109223EAE37300E64046494621AA06F074FB00287EF44EAF2EAC1B9D239A229B8BE64FF0060B8CE5109B002BD8BFC3F102068C
:40434000119BC8BF0126F3180B9323EAE373E3E5002B39DDBBF1000F25D1069BDE0722D4109A22EAE2730B92D6E51F9BB9E5079851460022002307F0C1FB00287FF409AF65
:40438000C7F101071B973E4498E5109B01330B9323EAE373C0E5303330228DF877308DF876201EABA7E7109B0BF1010633440B9323EAE373B0E5069B13F00103A3D110933A
:4043C0000B9B23EAE373A7E5BBF1000F12D1069BD8070FD401230B939EE50C9D28462E680430002E5D780C90BEF65CAE4FF0FF36FEF758BE0BF102030B9323EAE3738BE5B3
:404400000DF1760377E700BF2DE9F04588464F6EADF26C4D1997D8F81C70B1F80CE0B1F80EA00797D8F824701AAC4FF480652EF0020E002669460094049402950595ADF8CD
:404440000CE0ADF80EA0099706960546FEF7B8FD041E07DB2846694602F08CF8B04218BF4FF0FF34BDF80C305B0605D5B8F80C3043F04003A8F80C3020460DF26C4DBDE8CD
:40448000F08500BF2DE9F04F8A468989ADF52D7D8E040290039309D4DAF8643041F4005123F40053AAF80C10CAF86430164616F8011B0023089306939B460793DFF85C8435
:4044C000119179B3D8F8000043185B7803F0080303F0FF055BB3DAF80430029C1A4612E0DAF80030D8F800101A7801330A445278150710D5DAF804200BF1010B013ACAF83B
:404500000030CAF80420002AEADC20465146FEF78BFB0028E4D03246164616F8011B11910029CFD107980DF52D7DBDE8F08F252940F082802C465378711C782B00F2B9822F
:40454000DFE813F09300B702B702B702B702B702B702B702B702B702B702B702B702B702B702B702B702B702B702B702B702B702B702B702B702B702B702B702B702B702E9
:40458000B702B702B702B702B702B702B7027900B702B702B702B7023002B702B702B702B702B7025A025A025A025A025A025A025A025A025A025A02B702B702B702B70244
:4045C000B702B702B702B702B702B70235027902B7027902B702B702B702B7027402B702B7026B02B702B702B702B702B702B702B702B7026202B702B7029902B702B7029B
:40460000B702B702B702B702B702940292027902790279028D029900B702B702AF02B7027E027C02AB02B702B702A802B702A102B702B70262020E46DAF80430002B40F38D
:404640004085DAF8003016F8012C197891427FF469AFDAF804200133013ACAF80420CAF800300BF1010B324656E74FF0FF300DF52D7DBDE8F08F0E46A64B032708930023E4
:404680000693DAF80430002B40F39E816B0610D5013F032F00F2BE80DFE817F0E30092002200160202985146FEF7BEFA002840F09281D8F80010DAF8002001E0CAF800208B
:4046C000137801320B445B781807E1D5DAF804300BF1010B013B002BCAF80430EEDCE1E754AA4FF00009099217464A46631EB3F5AE7F86BF6FF4AE7163180023994688BF59
:4047000040F25D145B469346B446069E45F45865DAF800100878A0F12B024D2A00F2E180DFE812F02A01DF002A01DF00DF00FE00CA00CA00CA00CA00CA00CA00CA003A0163
:404740003A01DF00DF00DF00DF00DF00DF00DF00250125012501250125012501DF00DF00DF00DF00DF00DF00DF00DF00DF00DF00DF00DF00DF00DF00DF00DF00DF002F0102
:40478000DF00DF00DF00DF00DF00DF00DF00DF00250125012501250125012501DF00DF00DF00DF00DF00DF00DF00DF00DF00DF00DF00DF00DF00DF00DF00DF00DF002F011E
:4047C000002C08BF4FF0FF3415F0010340F0C083ED0640F13B831D46D8F80010DAF80020137801320B445B78180737D4DAF804300135013BAC428AE80C002FD0002BEFDCDE
:4048000002985146FEF710FA40BBD8F80010DAF80020E5E7002C08BF012415F0010340F04683EA0640F12A841D46029F0BE01A44CAF80020384651461D44E41AFEF7F4F941
:40484000002840F015849AE80C00A342EFDB1B1B2244CAF804302544CAF80020AB4432465AE6002C08BF4FF0FF34EB0640F1BC82DAF80010002514AF0B780131FB5CB3B187
:40488000DAF804300135013BAC428AE80A00E5D0002BF1DC02985146FEF7C6F90028DDD1DAF800100B780131FB5C002BE8D1002D3FF438AEAB44D2E7174A25F4386532F9AC
:4048C0001660DAF804203870013A002A07F10107CAF804203EDD0131CAF80010013C7FF417AFEA050696D94666469B4607D5099B9F4200F2D983099B9F423FF413AE15F060
:40490000100400F04C83099B3246FF1A4F44BB4402E600BF498D000000D800004C89FF1F2A05CED516B945F4007508266A0500F15E8325F46075B9F1000F02D009F1FF392C
:404940000134DAF804200BF1010B013A002ACAF80420C0DC02985146CDF810C00693FEF763F9069BDDF810C00028B7D0B9E70A2EB7DD25F43865A4E72A06B2D525F080057A
:404980009FE705F4C062B2F5007FAAD125F4007545F4A065102694E7A34A32F91660082EE7DC9EE7737845F010050E46C4E50E4645F001059D4B032708930A230693DAF826
:4049C0000430002B3FF762AE02985146FEF72CF900283FF45BAE079A002A3FF446AEBAF80C3013F0400F134618BF4FF0FF3318460DF52D7DBDE8F08F04EB840403EB4404B5
:404A0000303C73780E4697E50E4645F40075884B032708931023069333E60E4645F00105834B03270893082306932AE6737845F002050E4680E50E46042722E60E46EFE749
:404A4000EC060E463FF567AD680740F15383039A136804320392A3F800B032465CE5737845F004050E4667E50E46A3E70E4645F04005002705E614A803F044F945F040055E
:404A800006460127FDE56A4B0E4608930A2306930327F6E50E460227F3E50E4645F40875B5E773786C2B00F01F8345F001050E4642E503445B780E4603F00303012B7FF466
:404AC00079AF45F0010575E7029802F03DF9631E0268B3F5AE7F0D9240F283816FF4AE72A31840F25D140C93002754AB0A9699463A463E4609930F970E970B9745F4F06560
:404B0000DAF800000178A1F12B0EBEF14E0F00F23B81DFE81EF07B0039017B00390139016F004F004F004F004F004F004F004F004F004F003901390139013901390139019A
:404B4000390134013901390139011D01180139013901A00039013901390139018F0039013901390139013901840039013901390139018000390139013901390139013901EC
:404B8000390134013901390139011D01180139013901A00039013901390139018F0039013901390139013901840039013901390139018000D74215D125F4C07589F800102A
:404BC00009F10109DAF80410013C013900290BF1010BCAF8041040F3E4800130CAF80000002C8DD104963B461746049A0A9E002A41D0F3E0EB05DDD50C9B25F08005013653
:404C0000002BDFD0013B0C930134DBE72B06E9D525F08005D2E7072AE4D10822CEE7062AE0D10722CAE700BF00D80000498D000031900000002F40F0C8802EB905F4E06E03
:404C4000BEF5E06F00F04582012A01D0042AC9D10132D2B2B2E7002A40F0B080002E40F0B98005F4E06EBEF5E06F00F026823B46174604960A9E013B012B40F2C9827B1EC7
:404C8000062B1BD8022F40F2D282032F16D03C1FE4B2E7430A954F444D46A146029C15F8011D2046524605F009FEBD42F7D14C460BF1FF3BA9460A9DC4EB0B0BEA051CD5AD
:404CC0006B0500F1C38219F8011C09F1FF3365290BF1FF340BD0452909D00298524605F0EDFD19F8021CABF10204A9F1020302985246A346994605F0E1FD15F010027FF4FD
:404D00000AAC05F4C063B3F5806F89F8002000F0E4810E9B002B40F08F8100220999029803F07AF8EF0702460B4640F14A810398016804300390C1E90023079B32460133CC
:404D40000793FFF7E9BB022A7FF44CAF032235E705F4A06EBEF5806F04D06B057FF542AF002E84D0AB0504D40B9BCDF83C90F31A0E9325F4F06545F4C07500261EE7012FAC
:404D80007FF430AF022719E70D9B93F800E08E457FF428AFAB057FF525AF25F420750B960CE7029851460492FDF73EFF049A00287FF418AF002C7FF4A3AE13E7032A3FF4CC
:404DC00047AF052A3FF444AF0CE7022F7FF43CAF0327F3E63B46174604960A9E25F4807549E700230C937FE6039A14AF134615680433A9460393DAF800301A78591CBA5C4D
:404E0000C2B1DAF80420CAF80010013ACAF804201B78013C09F8013B0CD0DAF80430002BE9DC02985146FDF7FFFE0028E3D0A9453FF4D1ADB9EB05053FF474AB079A0023D7
:404E40000132079289F80030AB4408E5039A1568171DA946DAF80010D8F800200B78481C13445B781B0715D4DAF80430CAF80000013BCAF804300B78013C09F8013B09D0DE
:404E8000DAF80430002BE5DC02985146FDF7CCFE0028DFD0079AC5EB0905013200230792AB44039789F800303246FFF735BB12AB1846002108220993FDF7DCFD15F010036D
:404EC0000A9300F0AA80002319460B960E460025A9460A9D54AFCDF810B001F02FFF48453FF479AD9AE80A00099A11F801EB013B09F1010BCAF80010029800923146CAF89F
:404F0000043007F809E05B463A4601F0A5FF411C3FF461AD002840F0A38005B93560049B013C5B440493002D40F09F80A9460436DAF80430002B63DD002CCED1DDF810B0AB
:404F40000B9E0A9B002B3FF4F8AE3246FFF7E4BA12AB1846002108220993FDF78BFD15F0100947D011AD002217460496DAF80030D8F800201B7813445B781E0702D4002C73
:404F800040F0EE80049EB9F1000F7FF4C4AA079BC5F80090013307933246FFF7BDBA2246069B3C7002980999089CA047AB063BD5039A1368043203921860079B013307936D
:404FC000A1E4AC073FF5B3AECDE90423039B1D1D1C6802F06BFEDDE90423002800F0BB801046194606F004FE03952060A5E625F4B06566E4039A1346043315680393B2E76F
:4050000002985146FDF710FE002895D04D46DDF810B00B9E002D94D0DDE4039A1368194613460433039350E76C077CD5039A1368043203921880C0E70F9C0A230298611CE4
:4050400003F082FEA1460E9BC21A0DF2A323994528BF0DF2A2294846854902F093FE5CE602307FF45CAFD94662E74FF000095FE7002D3FF4B0ACAB44FFF7F1BB039D2346E0
:4050800029680298CDF800A0012201F0B1FA2B46043300283FF49FAC079A83440132079203933246FFF738BA7B1E17F8011C029852461F4605F002FC1DE425F4F065012248
:4050C0007CE502985146FDF7AFFD00283FF4B9AA81E425F4F065012770E50B9A049B9B1A5A42002BB1D118E6B37845F002050236FFF722BAE9070DD4AA070BD5039A134667
:4051000011685A4604330393D317C1E900233246FFF702BA039A136804320392C3F800B03246FFF7F9B915F001027FF441AFA9077FF53EAF4F4B0899029899420999069BCB
:4051400000F0938003F08EFE039A136804320392C3E9000131E702F011FE03952060ECE501F0ECFDB8423FF436AC9AE80A0011F8012B0DF5A87ECAF8001009997E1C013BFF
:40518000009102980EF80720CAF8043029463346724601F061FE471C3FF41DACC0B9286001F0BAFD40B33746049E002F3FF4EBAE54ABDC1904952546029C013F204615F853
:4051C000011D524605F07AFB002FF6D1049DDAE6023019D13746DAF80430002B3FF7C6AE02985146FDF720FD00283FF4BFAE049E002F7FF4F0ABC6E6B344013CB9F1000F42
:4052000004D104354F46E6E72868C9E70746E2E7099B99457FF686A919F8011D0298524605F04CFB099B9945F6D1FFF77BB9099B99457FF677A919F8011D0298524605F005
:405240003DFB099B9945F6D1FFF76CB9099B99457FF668A919F8011D0298524605F02EFB099B9945F6D1FFF75DB903F07BFF6BE724D800003190000030B5044685B040B1E5
:40528000856B35B9039302920191FDF72FF801A90EC9204605B0BDE83040FFF7F3B800BF70B5084C06460025084611461A462560FAF74EFF431C00D070BD2368002BFBD099
:4052C000336070BD148BFF1F38B52F4B054618680C4610B1836B002B36D0A28993B218070CD52069A8B113F001021ED0636900225B42A361A260F0B1002038BDD9063AD552
:40530000580724D4206942F00803A3819BB20028E9D103F42072B2F5007FE4D02846214601F02AFDA3892069DDE7990758BF6269A2600028E0D1A3891A06DED543F0400362
:40534000A3814FF0FF3038BDFCF7D0FFC5E7216B49B104F14003994203D0284601F060FAA28900232363206922F02402002392B284E80900C7E742F0400209232B604FF08A
:40538000FF30A28138BD00BF3885FF1F024B13B1024800F005B8704700000000C5650000014600200246034605F08EBB38B5074C002305460846236006F042FF431C00D008
:4053C00038BD2368002BFBD02B6038BD148BFF1F2DE9F04F03690F6983B09F4200F38B80013F01F1140600F1140A56F827305AF827200133B2FBF3F8BB00009306EB0309FF
:4054000053440193B8F1000F3DD000231C46B446D6461A465CF804BBDEF800501FFA8BF34FEA1B4B03FB08220BFB08F303EB124392B2A41A1FFA83FBAAB22244CBEB15443C
:4054400004EB224492B242EA0442E1454EF8042B4FEA24444FEA1342DCD2009B5AF803308BB9019C231F9A450CD254F8043C4BB9A4F1080302E01A68043B1AB99A4507F12C
:40548000FF37F8D30761044601F0EEFF00282EDB00235546194608F1010856F8042B2B6890B2081A120C99B2C2EB1343421803EB224392B242EA0342B14545F8042B4FEA2E
:4054C0002341EAD25AF827200AEB87037AB91A1F92450BD253F8042C42B9083B02E01A68043B1AB99A4507F1FF37F8D32761404603B0BDE8F08F002003B0BDE8F08F00BFB2
:405500002DE9F04F016C99B00446CDE90223259D41B1426C012393408B604A6001F06CFD00232364DDE90223002B994636DB00232B60A54B1A4609EA0303934217D0DDE9CA
:405540000267002200233046394606F0D7FA804600282BD0249A01231360269B002B00F0CB809A481860013819B0BDE8F08F42F20F73249A1360029B002B00F0A68094483B
:40558000269B002BF0D0C378002B00F0B78000F10803269A136019B0BDE8F08F039A012322F000492B60CDF80C90C2E717AA16AB8DE80C00204632463B4602F075F85FEADB
:4055C0001955834640F08A80DDF85880179D6FF4826345449D42C0F295827E4A05F21243521B09FA02F9029A22FA03F049EA0000FCF750FA0123013DA1F1F87112930022A2
:40560000754BFCF709F96AA3D3E9002306F00EF869A3D3E90023FCF701F9064628460F46FCF748FA66A3D3E9002305F0FFFF02460B4630463946FCF7F1F806460F4606F0D5
:405640008FFA3946059000223046002306F060FA002840F0A481059B162B00F29D81DDE9022305985D4901EBC001D1E9000106F06DFA002800F05082059B013B05930023A0
:405680000C93C5EB0805B5F1010A00F19F8100230693059B002BC0F290819A440B9300230993229B092B2BD8052B40F37786043B22930025229B023B032B00F25586DFE81E
:4056C00013F0CF03C103B0026A06414B444AC9F31300002814BF1846104651E7C7F3130343F07F51CDF848803046A5F2FF3541F44011DDF8588082E73A4835E7C31C48E736
:40570000002161642046229101F04EFC4FF0FF33229A07930D9301230890239220640A93179B002BC0F2D080059A0E2A00F3CC802A4B03EBC203D3E90089239B002BC0F239
:405740009283DDE9026742464B463046394606F097F806F005FA8246FCF7ACF942464B4605F064FF02460B4630463946FCF754F8079E089F0AF13005012E3D7002460B46CE
:4057800007F1010562D00022174B05F04FFF0022002306460F4606F0B1F9002840F08180CDF808B0DDF820A0DDF81CB006942AE061436F63A787D23FB3C8608B288AC63FEA
:4057C000FB799F501344D33F0000F07F31D300003CD900000EFCFFFF0000F83F58D9000030D9000030D30000000024400022C84B05F01CFF0022002306460F4606F07EF9DD
:40580000002840F0E08342464B463046394606F037F806F0A5F90446FCF74CF942464B4605F004FF02460B4630463946FBF7F4FF04F1300605F8016BCAEB0506B34502464C
:405840000B46D3D1A246DDF808B0069C10461946FBF7E4FF06460F464046494632463B4606F056F948B94046494632463B4606F045F9B0B11AF0010F13D015F8018C6B1EDA
:40588000089904E08B4200F0458413F8018DB8F1390F03F101051A46F4D008F10103DBB213702046594601F0A7FB0022059B2A70249A01331360269B002B00F04A83089886
:4058C0001D6019B0BDE8F08F0A9A002A00F08480229A012A40F30983079B5F1E099BBB42C0F2AF83DF1B079B002BC0F2A584069D079B069A20461A44012106929A4401F05E
:4059000061FC064665B1BAF1000F09DDAA455346A8BF2B46069AED1AD21A0692C3EB0A0A099B002B1ADD0A9B002B00F08383002F10DD31463A46204601F0EEFC06465A46EF
:405940003146204601F048FC80465946204601F053FBC346099BDA1B40F0A7822046012101F030FC0B9B8046002B39DD01461A46204601F0D1FC229B8046012B40F39B82F4
:405980004FF00009D8F8103008EB8303186901F0CBFBC0F120002DE001230C9371E60598FCF788F832463B4606F0A8F800287FF452AE059B013B05934DE6069A059BD21AD9
:4059C0005B420993002306920B936AE6CAF1000306934FF0000A5CE6099F069D0A9E91E7229B012B40F3B8824FF000090B9B002BC8D10120504410F01F0000F08180C0F1FA
:405A00002003042B40F3C184C0F11C00069B0544034406938244069B002B05DD59461A46204601F0C9FC8346BAF1000F05DD41465246204601F0C0FC80460C9B002B40F017
:405A40006D82079B002B40F39B820A9B002B71D1DDF82090079F4D4604E05946204601F0D5FA834658464146FFF7B2FC303005F8010BC9EB0503BB424FF00A024FF0000360
:405A8000EBDB089B079A8446012AACBF9B1801331D464FF0000A594601222046CDF808C001F08AFC4146834601F0DEFC0028DDF808C040F3FC8215F8012C6B1E089904E0E4
:405AC0008B4200F0798213F8012D392A03F10105F6D001321A704146204601F08DFA002E3FF4DFAEBAF1000F05D0B24503D05146204601F081FA3146204601F07DFAD0E6C5
:405B00001C2083E7034B029A5B1B02FA03F06FE500002440EEFBFFFF0C90B2E53146002320460A2201F072FA0D9B0646002B40F315840793002D05DD31462A46204601F043
:405B40003BFC0646B9F1000F40F0EE82B146089A079B1746013BD3180993029B03F001030A9341465846FFF733FC31460546584601F07AFC4A4682464146204601F098FCE2
:405B8000C268034605F1300C002A40F0BD8119465846CDF81CC0069301F066FC069B02901946204601F028FA029ADDF81CC02AB9229B1BB90A9B002B00F0B083BAF1000FA5
:405BC000C0F2578205D1229B1BB90A9B002B00F05082002A00F3BC82099B07F1010A9F4287F800C0554600F0BF8259460A220023204601F00BFA4E458346314620464FF071
:405C00000A024FF0000300F0798101F0FFF9494606460A222046002301F0F8F9574681469FE701230A93239B002B40F319821F461E460D9307930021172F61640AD901223A
:405C400004235B0003F114008742114602F10102F7D26164204601F0A7F90E2E089020643FF65EAD002D3FF45BADDDE902230599CDE90E23002940F32682BA4B01F00F0284
:405C80000D1103EBC203E906D3E9006740F1E181DDE90E01B44B05F00F05D3E9082305F0EFFDCDE902014FF003088DB130463946DFF8B492EA0705D5D9E9002305F0B6FC1F
:405CC00008F101086D1009F10809F3D106460F46DDE9020132463B4605F0D2FDCDE902010C9B43B1DDE902010022A04B05F010FF002840F0B5824046FBF7DCFEDDE9022335
:405D000005F094FC9A4B0022FBF788FD079B0646A1F15077002B00F06881059BDDF81CC013930A9B002B00F026828E4B002003EBCC0353E902238F49CDF850C005F0A0FD60
:405D400032463B46FBF768FDDDE90267CDE910013946304605F004FF0546FBF7ABFE02460B4630463946FBF757FDDDE9102330355FFA85F8089D064685F800800F46013589
:405D800005F0C6FE002840F0B98232463B4600207649FBF741FD02460B46DDE9100105F0D5FE002840F0B382DDF850C0BCF1010F40F33A81089BCDF850A0CDF808B003EB77
:405DC0000C09DDE910ABA0460FE032463B4600206649FBF721FD52465B4605F099FE002840F090824D4500F01A81504659460022614B05F01BFC00225F4B82468B4630462A
:405E0000394605F013FC0F46064605F0A9FE0446FBF750FE02460B4630463946FBF7FCFC3034E4B205F8014B52465B4606460F4605F06EFE0028C8D0139BDDF808B044469D
:405E400005932EE500230A93239B059A13440D930133002B079340F30A81079E3746EAE600230A93DFE6079B002B3FF76AAC40F0668240460022414B494605F0D7FBDDE9B4
:405E8000022305F059FEDDF81C804646002800F08B80239B089DDB4305934146204601F0ABF8002E7FF427AEFBE45946204601F033FA834652E5029B002B7FF461AD039B58
:405EC000C3F31303002B7FF48FAD039B23F000473F0D3F05002F00F01E82069B0AF1010A013306934FF0010980E5129A002A00F0A98103F23343099F069DFAE401F086F8A0
:405F00005746064681462CE601462046CDF808C001F072F80122DDF808C04FE65846414601F0A2FA0028BFF68CAD059F5946002320460A22013F059701F068F80A9B8346BA
:405F4000002B7FF4EBAD0D9B002B40F3FC8107937EE50898FFF708BB029B002B7FF444ADADE700BF58D9000020DA00000000F03F00001C400000E03F000024400000144006
:405F8000229B022B7FF761AD079B002B81D141460522204601F03AF880465846414601F063FA00287FF775AF059A08993123013205920B704D1C70E7059A312301320592CC
:405FC000089A137087E5DDF808B0069C69E44046FBF770FDDDE9022305F028FB0022BE4BFBF71CFC0646A1F15077DDE902010022BA4BFBF711FC32463B46CDE9020105F03C
:40600000A5FD8046002840F0B280DDE90201324607F1004305F07CFD30B1464639E74446DDF850A0DDF808B0DDE90E23CDE90223FFF776BB5946099A204601F06DF983465A
:406040008CE4099B0B9AFB1A1A4409970B92002749E4DDE90E234FF00208CDE9022324E6012623960D96079600216164F2E51E46FAE7002A15DD594601222046CDF808C04B
:4060800001F09AF94146834601F0EEF90028DDF808C040F34D81BCF1390F00F009810CF1010CB24687F800C07D1C4E4613E504D11CF0010F01D0FEE4154615F8013C6A1EC8
:4060C000302BF9D007E5059B5D42002D00F0C180DDE90E01824B05F00F0203EBC203D3E9002305F0A3FA2D11CDE9020100F030817C4E4FF00208EB0705D5D6E9002305F0D9
:4061000095FA08F101086D1006F10806F3D1CDE90201E5E5059A302301320592089A137031231370FFF7BDBB7168204600F03CFF0546336906F10C019A1C92000C30FCF713
:4061400023FC20462946012201F036F98146FEE4BCF1390F00F0AC800CF1010CB24687F800C07D1C4E46B6E4B2464E4693E44FF00008464618E75A490CF1FF3301EBC301CF
:406180003246D1E9000114933B46CDF854C005F04DFADDE90267CDE910013946304605F0DFFC0546FBF786FC02460B4630463946FBF732FBDDF854C0089A3035BCF1010F9B
:4061C000157006460F4602F1010523D0089BCDF808A063445E469A46AB460022424B05F025FA8946804605F0BBFC0746FBF762FC303702460B4640464946FBF70DFB0BF8AE
:40620000017BD345E9D1B3460F460646149BDDF808A01D440022354BDDE91001FBF7FEFA32463B4605F074FC002848D0139B059315F8018CFFF723BB069B079A9D1A002318
:40624000FFF757BB169B099FC3F13603069DFFF750BBDDE90E234FF00208CDE902233FE5079B002B3FF4B3AE0D9D002D7FF7DCAEDDE9020100221C4B05F0D8F906460F46FC
:4062800008F10100CDE90267FBF714FC02460B463046394605F0CAF90F4B0022FBF7BEFA059B0646013B1393A1F15077AC4638E53922B2463A704E467D1CFFF7FEBBDDE982
:4062C000102300200949FBF7A7FA32463B4605F03DFC70B9A8E600BF00001C400000144058D9000020DA0000000024400000E03F154615F8013C6A1E302BF9D0139B0593D4
:40630000FFF7CFBA4346A0461C46DDF808B0139B0593FFF7B4BAB946FFF768BBBCF1390FC6D0BAF1000F7FF7BCAE05F1310CB8E67FF4B7AE1CF0010F3FF4B3AEABE64FF070
:4063400000084646A5E5229B022B04DC0D9BFEE54FF00208C4E40D9B079315E6229B022BF9DC0D9BFFF7E5BB002565642946204600F01AFE4FF0FF3307930D93012308904D
:40638000239520640A93FFF7CBB93FF444ABC0F13C00FFF73BBB01230A9355E50125FFF789B900BFAFF3008000293DD070B505460C4608B1836B7BB3B4F90C300BB90020BB
:4063C00070BD2846214600F031F8E36A064633B12846E16998470028B8BF4FF0FF36A3891B061CD4216B41B104F14003994202D0284600F015FA00232363616C21B1284698
:4064000000F00EFA00236364FBF776FF0023A381FBF774FF304670BDFBF768FFCCE72846216900F0FDF9DDE7002070478B892DE9F0419AB20D46110780463CD46A6843F44E
:406440000063002AAB8165DDAE6A002E4BD09BB203F48052002192B2D8F80040C8F80010002A5BD02A6D5F0705D569682B6B521A0BB1EB6BD21A4046E9690023B047461C14
:4064800056D0AB892A6923F400639BB200212A60DA04AB8169603BD4296BC8F8004011B305F14003994202D0404600F0B9F900202863BDE8F0812E69AEB191072C680CBF87
:4064C0006B6900232E60A41BAB600AE0324623466F6A4046E969B8470028A4EB0004064404DD002CF2DC0020BDE8F081AB894FF0FF3043F04003AB81BDE8F081AB892A699B
:4065000023F400639BB2AB81DB0469602A60C3D52865C1E7EA6B002A96DCE4E701234046E969B047431C024619D0AB89AE6A9AE7D8F800100029E1D01D2907D0162905D072
:40654000AB8943F04003AB81BDE8F081AB89296923F400630022AB8185E806009CE7D8F80030002BE1D01D2B01D0162BBED1C8F80040B8E710B5044682B008B1836B53B15B
:40658000B1F90C0008B902B010BD204602B0BDE81040FFF74BBF0191FBF7A8FE0199EFE720B1054B01461868FFF7E4BF034B04491868FBF7C9BE00BF3885FF1F9CD700001C
:4065C0007565000038B5084B084DED1AAC1018BFED1805D0013C55F8043D9847002CF9D1BDE8384007F0FCBAECDB0000F0DB00002DE9F04F02FB03F585B090460393DDF8FC
:4066000038B0002D48D08946044618B1826B002A00F0A880BBF80C2091B288040AD4DBF8641042F4005221F40050ABF80C2091B2CBF86400DBF80460002E38DB8B073246A1
:406640003CD4AA4611E03246FCF79EF9DBF8002020463244CBF800205946C6EB0A0AB144FCF7E2FAE0B9DBF80460B2454846DBF80010E8D85246FCF787F9DBF80410DBF890
:406680000020CAEB010152440398CBF80410CBF8002005B0BDE8F08F284605B0BDE8F08FCAEB0505B5FBF8F005B0BDE8F08F00208B0702460646CBF80400C2D5AA4228BF51
:4066C0002A469246DBF800104846FCF75DF9DBF80060DBF80420DBF8301006EB0A03CAEB0202019309EB0A07CBF80030CBF80420CAEB050600293ED0002E3ED00BF14000C2
:40670000814205D0204600F08BF8DBF8003001930021CBF83010DBF81030DBF814A002934FF0000900E046B3CBF81070CBF81460CBF8007059462046FCF776FA029BDBF858
:406740000410CBF81030019BCBF814A0CBF80030761A0F44CBF804900028E4D0AD1BB5FBF8F096E7FBF7C2FDBBF80C2091B288043FF560AF53E7002ECDD1039805B0BDE86C
:40678000F08F00BFF8B50C46224F0646FCF7C0F9BB685D6825F00305291B01F6EF7121F47F6121F00F01A1F58054B4F5805F07DB30460021FCF7DAFABB682B44984204D00B
:4067C0003046FCF7A7F90020F8BD30466142FCF7CDFA01300DD0104BBA6819682D1B45F001053046091B55601960FCF793F90120F8BD30460021FCF7B9FABA68831A0F2B06
:40680000DEDD064C0449246843F00103001B53600860D5E73C85FF1FE489FF1F4889FF1F00294ED02DE9F0410C468046FCF770F954F8047C6249A4F1080527F00102AB18F8
:406840008E6858689E4220F003005AD0FE0758600BD454F8087C01F1080EED1BAC683A44744567D0EF68E760BC601C186468E4070CD4544F9C680244BC427CD0D86842F019
:406880000103E06084606B60AA5003E042F001036B60AA50B2F5007F14D2D20801EBC20301244868921004FA02F29C681043AC60EB6048609D60E5604046BDE8F041FCF726
:4068C00029B97047530A042B47D8930903F13804600001EB800083683949834243D0596821F00301914202D99B689842F7D1DA68EA60AB6040469560DD60BDE8F041FCF736
:4069000009B9FF07024407D454F8084C2D1BEB68A8682244C36098602B4B42F001001B6868609A428D60C7D3284B40461968FFF729FFC1E719184968C90709D4D9680244F5
:406940009B6842F00100D9608B606860AA50B3E742F001036B60AA50AEE7142B14D803F15B046000B5E74A68A4100120A04002434A601A46BCE742F001034D610D61EC6060
:40698000AC606B60AA5097E7542B04D8130B03F16E0460009DE7B3F5AA7F04D8D30B03F17704600095E740F25450834204D8930C03F17C0460008CE7FC207E2489E700BFA5
:4069C0003C85FF1F4485FF1F4489FF1FE089FF1F9368002B00F0B1802DE9F04FB1F80CE083B01EF0080F0C468146164628D00B6933B30EF002081FFA88F0356880B34FF067
:406A0000000BD846DFF8E4A2B8F1000F00F08F80D0454346484628BF5346E1695A46676AB847002840F3A880B36883441B1AC0EB0808B360002BE7D1002003B0BDE8F08F71
:406A400048462146FEF740FC002840F04681B4F80CE035680EF002081FFA88F00028CED11EF0010B40F09180D846B8F1000F58D01EF4007FA76862D0B845BA46C0F0C28022
:406A80001EF4906F00F0C08067692169236807EB47075B1A07EBD777581C7F10404487423A463CBF07463A461EF4806F009300F0FB8011464846FBF797FC009B824600282F
:406AC00000F00E811A4621690093FBF75DFFA289009B22F4906242F08002A2810AEB0300C4F810A0FB1A6761C24647462060A3605246594600F0F4F9A0682268C01BA060CD
:406B0000404602EB0A032360B36883441B1AC0EB0808B360002B8FD0B4F80CE0B8F1000FA6D1D5F800B0D5F8048008359DE7D5F800B0D5F80480083566E7002070472068D6
:406B40002369984203D86269904580F08580474528BF474659463A4600F0C2F9A3682268DB1B3A44A3602260002B49D148462146FFF700FD002843D0A38943F040034FF01E
:406B8000FF30A38103B0BDE8F08F8046834682460090BAF1000F2BD0009B002B4FD0D045434628BF5346206821691F468842D4F808E0626903D90EEB020C63455EDC9342B2
:406BC00024DB1346676A4846E1695A46B847071ED2DDB8EB070829D0B368BB44DB1BC7EB0A0AB360002B3FF427AFBAF1000FD3D10023D5F800B0D5F804A000930835C8E76B
:406C0000384681E74746C246206871E71A465946019300F065F9A2682168019BB8EB0708A2EB03020B44A2602360D5D148462146FFF7A0FC00289FD1CDF80080CCE7584676
:406C40000A215246FBF756FE002841D001300123CBEB00080093A2E76FF00043434528BF434693FBF2F3676A03FB02F34846E1695A46B84700283FF747AF7DE7624659465C
:406C8000CDF804C000F02CF92368DDF804C04846634423602146FFF76DFCDDF804C000287FF46AAF674694E7484600F00FFE009B824600287FF412AF48462169FFF7B0FD1A
:406CC000A3890C2223F080039BB2C9F8002054E701230AF10108009361E74FF0FF30ACE60C23C9F80030A38947E700BF00FCFF7F38B5084C0023054608461146236005F0B9
:406D0000AFFA431C00D038BD2368002BFBD02B6038BD00BF148BFF1FFF2807D8044B1B681844407800F00800C0B27047002070474C89FF1F004870478889FF1F014B186838
:406D4000704700BFA889FF1F004870475089FF1F70B5084C06460025084611461A46256005F08EFA431C00D070BD2368002BFBD0336070BD148BFF1F8B899AB212F0020F9A
:406D80003CD1F0B50C46B1F90E1091B00029054619DB01AA03F084FF002812DB029B03F47043A3F50057B7FA87F7B3F5004F4FEA57172AD0A3894FF4806643F40063A38118
:406DC0000BE0A3899AB212F0800F43F40063A3810CBF4FF480664026002728463146FBF703FBA38940B31A4A43F08003EA63A3812060206166619FB911B0F0BD01F143031B
:406E000001220B600B614A617047124BA26A9A42D0D1A3894FF480663343A381E664DCE72846B4F90E1004F0EBFA0028E4D0A38943F00103A381DFE79A05DDD404F143024F
:406E400043F002030121A381226022616161D3E7F1210000152E00002DE9F04383B005460A9E1446B2B11F46104B8846D3F80090FFF760FF41468DE8410022463B462846C0
:406E8000C847431C03D100228A2332602B6003B0BDE8F083054B1F68FFF74CFF21468DE84100034A28460123B847EAE7AC89FF1F7CCE000082B049B15AB16BB113780B600F
:406EC0001278101C18BF012002B0704701A9002AF3D1104602B070476FF00100F4E700BF8842F0B50DD98B1898420AD28118002A54D09A1A13F8014D934201F8014DF9D1A2
:406F0000F0BD0F2A48D940EA01039B0747D1154600F1100401F1100353F8106C103D44F8106C53F80C6C0F2D44F80C6C53F8086C04F1100444F8186C53F8046C03F1100334
:406F400044F8146CE8D8A2F1100323F00F0302F00F0E1033BEF1030F1944034421D90E4674461D1F56F8047B043C032C45F8047FF8D8AEF1040424F003040434234421443D
:406F800002F0030252B1013B0A4411F8014B914203F8014FF9D1F0BD0346F3E7F0BD0346F1E77246EEE700BFC26C70B505460C4652B152F824308BB1196842F82410002248
:406FC00018461A61DA6070BD2122042103F0CEFDE86402460028ECD1002070BD012101FA04F6721D2846920003F0C0FD03460028F2D044608660E2E731B1C36C4A6853F87B
:407000002200086043F82210704700BFF0B50C4605460E6983B001F1140E0027DEF80010013788B2090C02FB003302FB01F198B201EB134300EB0341BE424EF8041B4FEAD7
:407040001343EBDC3BB1A268964207DA04EB8602013653612661204603B0F0BD6168284601310193FFF7A0FF0746226904F10C01023292000C30FBF787FCEA6C6168019BF7
:4070800052F82100206042F821403C46DEE700BF2DE9F843234C1F46083384FB034EDB17C3EB6E0EBEF1010F06460C469046089D35DD012300215B009E4501F10101FADCC1
:4070C0003046FFF771FF0123B8F1090F4561036121DD04F109094D46444415F8013B0146303B30460A22FFF791FFA542F5D109EB0804083C47450CDDC8EB0707274414F8E4
:40710000013B0146303B30460A22FFF77FFFBC42F5D1BDE8F8830A344FF00908EAE70021CEE700BF398EE338030C1B04B3B90004102310F07F4F04BF0002083310F0704F33
:4071400004BF0001043310F0404F04BF80000233002807DB420003D4202070470023E8E7581C704718467047036813F0070207D0D90720D49A0720D49B080360022070472B
:4071800099B209B91B0C102213F0FF0F04BF1B0A0832190704BF1B090432990704BF9B080232D90704D45B0801D1202070470132036010467047002070475B08036001207A
:4071C000704700BF10B50C460121FFF7EDFE01224461026110BD00BF2DE9F04F0E69156985B0AE420C469146C0F292802B4635461E46A36805EB060861689845C8BF013134
:40720000FFF7D2FE00F1140A0AEB880BDA45019005D25346002143F8041B9B45FBD809F1140909EB860304F11402994502EB850C59D2CDF808B0CDF80C809B46904659F8A7
